{
  "contractName": "ERC1155PresetMinterPauser",
  "abi": [
    {
      "inputs": [
        {
          "internalType": "string",
          "name": "uri",
          "type": "string"
        }
      ],
      "stateMutability": "nonpayable",
      "type": "constructor"
    },
    {
      "anonymous": false,
      "inputs": [
        {
          "indexed": true,
          "internalType": "address",
          "name": "account",
          "type": "address"
        },
        {
          "indexed": true,
          "internalType": "address",
          "name": "operator",
          "type": "address"
        },
        {
          "indexed": false,
          "internalType": "bool",
          "name": "approved",
          "type": "bool"
        }
      ],
      "name": "ApprovalForAll",
      "type": "event"
    },
    {
      "anonymous": false,
      "inputs": [
        {
          "indexed": false,
          "internalType": "address",
          "name": "account",
          "type": "address"
        }
      ],
      "name": "Paused",
      "type": "event"
    },
    {
      "anonymous": false,
      "inputs": [
        {
          "indexed": true,
          "internalType": "bytes32",
          "name": "role",
          "type": "bytes32"
        },
        {
          "indexed": true,
          "internalType": "bytes32",
          "name": "previousAdminRole",
          "type": "bytes32"
        },
        {
          "indexed": true,
          "internalType": "bytes32",
          "name": "newAdminRole",
          "type": "bytes32"
        }
      ],
      "name": "RoleAdminChanged",
      "type": "event"
    },
    {
      "anonymous": false,
      "inputs": [
        {
          "indexed": true,
          "internalType": "bytes32",
          "name": "role",
          "type": "bytes32"
        },
        {
          "indexed": true,
          "internalType": "address",
          "name": "account",
          "type": "address"
        },
        {
          "indexed": true,
          "internalType": "address",
          "name": "sender",
          "type": "address"
        }
      ],
      "name": "RoleGranted",
      "type": "event"
    },
    {
      "anonymous": false,
      "inputs": [
        {
          "indexed": true,
          "internalType": "bytes32",
          "name": "role",
          "type": "bytes32"
        },
        {
          "indexed": true,
          "internalType": "address",
          "name": "account",
          "type": "address"
        },
        {
          "indexed": true,
          "internalType": "address",
          "name": "sender",
          "type": "address"
        }
      ],
      "name": "RoleRevoked",
      "type": "event"
    },
    {
      "anonymous": false,
      "inputs": [
        {
          "indexed": true,
          "internalType": "address",
          "name": "operator",
          "type": "address"
        },
        {
          "indexed": true,
          "internalType": "address",
          "name": "from",
          "type": "address"
        },
        {
          "indexed": true,
          "internalType": "address",
          "name": "to",
          "type": "address"
        },
        {
          "indexed": false,
          "internalType": "uint256[]",
          "name": "ids",
          "type": "uint256[]"
        },
        {
          "indexed": false,
          "internalType": "uint256[]",
          "name": "values",
          "type": "uint256[]"
        }
      ],
      "name": "TransferBatch",
      "type": "event"
    },
    {
      "anonymous": false,
      "inputs": [
        {
          "indexed": true,
          "internalType": "address",
          "name": "operator",
          "type": "address"
        },
        {
          "indexed": true,
          "internalType": "address",
          "name": "from",
          "type": "address"
        },
        {
          "indexed": true,
          "internalType": "address",
          "name": "to",
          "type": "address"
        },
        {
          "indexed": false,
          "internalType": "uint256",
          "name": "id",
          "type": "uint256"
        },
        {
          "indexed": false,
          "internalType": "uint256",
          "name": "value",
          "type": "uint256"
        }
      ],
      "name": "TransferSingle",
      "type": "event"
    },
    {
      "anonymous": false,
      "inputs": [
        {
          "indexed": false,
          "internalType": "string",
          "name": "value",
          "type": "string"
        },
        {
          "indexed": true,
          "internalType": "uint256",
          "name": "id",
          "type": "uint256"
        }
      ],
      "name": "URI",
      "type": "event"
    },
    {
      "anonymous": false,
      "inputs": [
        {
          "indexed": false,
          "internalType": "address",
          "name": "account",
          "type": "address"
        }
      ],
      "name": "Unpaused",
      "type": "event"
    },
    {
      "inputs": [],
      "name": "DEFAULT_ADMIN_ROLE",
      "outputs": [
        {
          "internalType": "bytes32",
          "name": "",
          "type": "bytes32"
        }
      ],
      "stateMutability": "view",
      "type": "function"
    },
    {
      "inputs": [],
      "name": "MINTER_ROLE",
      "outputs": [
        {
          "internalType": "bytes32",
          "name": "",
          "type": "bytes32"
        }
      ],
      "stateMutability": "view",
      "type": "function"
    },
    {
      "inputs": [],
      "name": "PAUSER_ROLE",
      "outputs": [
        {
          "internalType": "bytes32",
          "name": "",
          "type": "bytes32"
        }
      ],
      "stateMutability": "view",
      "type": "function"
    },
    {
      "inputs": [
        {
          "internalType": "address",
          "name": "account",
          "type": "address"
        },
        {
          "internalType": "uint256",
          "name": "id",
          "type": "uint256"
        }
      ],
      "name": "balanceOf",
      "outputs": [
        {
          "internalType": "uint256",
          "name": "",
          "type": "uint256"
        }
      ],
      "stateMutability": "view",
      "type": "function"
    },
    {
      "inputs": [
        {
          "internalType": "address[]",
          "name": "accounts",
          "type": "address[]"
        },
        {
          "internalType": "uint256[]",
          "name": "ids",
          "type": "uint256[]"
        }
      ],
      "name": "balanceOfBatch",
      "outputs": [
        {
          "internalType": "uint256[]",
          "name": "",
          "type": "uint256[]"
        }
      ],
      "stateMutability": "view",
      "type": "function"
    },
    {
      "inputs": [
        {
          "internalType": "address",
          "name": "account",
          "type": "address"
        },
        {
          "internalType": "uint256",
          "name": "id",
          "type": "uint256"
        },
        {
          "internalType": "uint256",
          "name": "value",
          "type": "uint256"
        }
      ],
      "name": "burn",
      "outputs": [],
      "stateMutability": "nonpayable",
      "type": "function"
    },
    {
      "inputs": [
        {
          "internalType": "address",
          "name": "account",
          "type": "address"
        },
        {
          "internalType": "uint256[]",
          "name": "ids",
          "type": "uint256[]"
        },
        {
          "internalType": "uint256[]",
          "name": "values",
          "type": "uint256[]"
        }
      ],
      "name": "burnBatch",
      "outputs": [],
      "stateMutability": "nonpayable",
      "type": "function"
    },
    {
      "inputs": [
        {
          "internalType": "bytes32",
          "name": "role",
          "type": "bytes32"
        }
      ],
      "name": "getRoleAdmin",
      "outputs": [
        {
          "internalType": "bytes32",
          "name": "",
          "type": "bytes32"
        }
      ],
      "stateMutability": "view",
      "type": "function"
    },
    {
      "inputs": [
        {
          "internalType": "bytes32",
          "name": "role",
          "type": "bytes32"
        },
        {
          "internalType": "uint256",
          "name": "index",
          "type": "uint256"
        }
      ],
      "name": "getRoleMember",
      "outputs": [
        {
          "internalType": "address",
          "name": "",
          "type": "address"
        }
      ],
      "stateMutability": "view",
      "type": "function"
    },
    {
      "inputs": [
        {
          "internalType": "bytes32",
          "name": "role",
          "type": "bytes32"
        }
      ],
      "name": "getRoleMemberCount",
      "outputs": [
        {
          "internalType": "uint256",
          "name": "",
          "type": "uint256"
        }
      ],
      "stateMutability": "view",
      "type": "function"
    },
    {
      "inputs": [
        {
          "internalType": "bytes32",
          "name": "role",
          "type": "bytes32"
        },
        {
          "internalType": "address",
          "name": "account",
          "type": "address"
        }
      ],
      "name": "grantRole",
      "outputs": [],
      "stateMutability": "nonpayable",
      "type": "function"
    },
    {
      "inputs": [
        {
          "internalType": "bytes32",
          "name": "role",
          "type": "bytes32"
        },
        {
          "internalType": "address",
          "name": "account",
          "type": "address"
        }
      ],
      "name": "hasRole",
      "outputs": [
        {
          "internalType": "bool",
          "name": "",
          "type": "bool"
        }
      ],
      "stateMutability": "view",
      "type": "function"
    },
    {
      "inputs": [
        {
          "internalType": "address",
          "name": "account",
          "type": "address"
        },
        {
          "internalType": "address",
          "name": "operator",
          "type": "address"
        }
      ],
      "name": "isApprovedForAll",
      "outputs": [
        {
          "internalType": "bool",
          "name": "",
          "type": "bool"
        }
      ],
      "stateMutability": "view",
      "type": "function"
    },
    {
      "inputs": [],
      "name": "paused",
      "outputs": [
        {
          "internalType": "bool",
          "name": "",
          "type": "bool"
        }
      ],
      "stateMutability": "view",
      "type": "function"
    },
    {
      "inputs": [
        {
          "internalType": "bytes32",
          "name": "role",
          "type": "bytes32"
        },
        {
          "internalType": "address",
          "name": "account",
          "type": "address"
        }
      ],
      "name": "renounceRole",
      "outputs": [],
      "stateMutability": "nonpayable",
      "type": "function"
    },
    {
      "inputs": [
        {
          "internalType": "bytes32",
          "name": "role",
          "type": "bytes32"
        },
        {
          "internalType": "address",
          "name": "account",
          "type": "address"
        }
      ],
      "name": "revokeRole",
      "outputs": [],
      "stateMutability": "nonpayable",
      "type": "function"
    },
    {
      "inputs": [
        {
          "internalType": "address",
          "name": "from",
          "type": "address"
        },
        {
          "internalType": "address",
          "name": "to",
          "type": "address"
        },
        {
          "internalType": "uint256[]",
          "name": "ids",
          "type": "uint256[]"
        },
        {
          "internalType": "uint256[]",
          "name": "amounts",
          "type": "uint256[]"
        },
        {
          "internalType": "bytes",
          "name": "data",
          "type": "bytes"
        }
      ],
      "name": "safeBatchTransferFrom",
      "outputs": [],
      "stateMutability": "nonpayable",
      "type": "function"
    },
    {
      "inputs": [
        {
          "internalType": "address",
          "name": "from",
          "type": "address"
        },
        {
          "internalType": "address",
          "name": "to",
          "type": "address"
        },
        {
          "internalType": "uint256",
          "name": "id",
          "type": "uint256"
        },
        {
          "internalType": "uint256",
          "name": "amount",
          "type": "uint256"
        },
        {
          "internalType": "bytes",
          "name": "data",
          "type": "bytes"
        }
      ],
      "name": "safeTransferFrom",
      "outputs": [],
      "stateMutability": "nonpayable",
      "type": "function"
    },
    {
      "inputs": [
        {
          "internalType": "address",
          "name": "operator",
          "type": "address"
        },
        {
          "internalType": "bool",
          "name": "approved",
          "type": "bool"
        }
      ],
      "name": "setApprovalForAll",
      "outputs": [],
      "stateMutability": "nonpayable",
      "type": "function"
    },
    {
      "inputs": [
        {
          "internalType": "uint256",
          "name": "",
          "type": "uint256"
        }
      ],
      "name": "uri",
      "outputs": [
        {
          "internalType": "string",
          "name": "",
          "type": "string"
        }
      ],
      "stateMutability": "view",
      "type": "function"
    },
    {
      "inputs": [
        {
          "internalType": "address",
          "name": "to",
          "type": "address"
        },
        {
          "internalType": "uint256",
          "name": "id",
          "type": "uint256"
        },
        {
          "internalType": "uint256",
          "name": "amount",
          "type": "uint256"
        },
        {
          "internalType": "bytes",
          "name": "data",
          "type": "bytes"
        }
      ],
      "name": "mint",
      "outputs": [],
      "stateMutability": "nonpayable",
      "type": "function"
    },
    {
      "inputs": [
        {
          "internalType": "address",
          "name": "to",
          "type": "address"
        },
        {
          "internalType": "uint256[]",
          "name": "ids",
          "type": "uint256[]"
        },
        {
          "internalType": "uint256[]",
          "name": "amounts",
          "type": "uint256[]"
        },
        {
          "internalType": "bytes",
          "name": "data",
          "type": "bytes"
        }
      ],
      "name": "mintBatch",
      "outputs": [],
      "stateMutability": "nonpayable",
      "type": "function"
    },
    {
      "inputs": [],
      "name": "pause",
      "outputs": [],
      "stateMutability": "nonpayable",
      "type": "function"
    },
    {
      "inputs": [],
      "name": "unpause",
      "outputs": [],
      "stateMutability": "nonpayable",
      "type": "function"
    },
    {
      "inputs": [
        {
          "internalType": "bytes4",
          "name": "interfaceId",
          "type": "bytes4"
        }
      ],
      "name": "supportsInterface",
      "outputs": [
        {
          "internalType": "bool",
          "name": "",
          "type": "bool"
        }
      ],
      "stateMutability": "view",
      "type": "function"
    }
  ],
  "bytecode": "0x60806040523480156200001157600080fd5b506040516200548038038062005480833981810160405281019062000037919062000546565b8062000049816200011260201b60201c565b506000600560006101000a81548160ff021916908315150217905550620000896000801b6200007d6200012760201b60201c565b6200012f60201b60201c565b620000ca7f9f2df0fed2c77648de5860a4cc508cd0818c85b8b8a1ab4ceeef8d981c8956a6620000be6200012760201b60201c565b6200012f60201b60201c565b6200010b7f65d7a28e3265b37a6474929f336521b332c1681b933f6cb9f3376673440d862a620000ff6200012760201b60201c565b6200012f60201b60201c565b50620008c9565b8060049081620001239190620007e2565b5050565b600033905090565b6200014182826200014560201b60201c565b5050565b6200015782826200018360201b60201c565b6200017e81600160008581526020019081526020016000206200027460201b90919060201c565b505050565b620001958282620002ac60201b60201c565b6200027057600160008084815260200190815260200160002060000160008373ffffffffffffffffffffffffffffffffffffffff1673ffffffffffffffffffffffffffffffffffffffff16815260200190815260200160002060006101000a81548160ff021916908315150217905550620002156200012760201b60201c565b73ffffffffffffffffffffffffffffffffffffffff168173ffffffffffffffffffffffffffffffffffffffff16837f2f8788117e7eff1d82e926ec794901d17c78024a50270940304540a733656f0d60405160405180910390a45b5050565b6000620002a4836000018373ffffffffffffffffffffffffffffffffffffffff1660001b6200031660201b60201c565b905092915050565b600080600084815260200190815260200160002060000160008373ffffffffffffffffffffffffffffffffffffffff1673ffffffffffffffffffffffffffffffffffffffff16815260200190815260200160002060009054906101000a900460ff16905092915050565b60006200032a83836200039060201b60201c565b620003855782600001829080600181540180825580915050600190039060005260206000200160009091909190915055826000018054905083600101600084815260200190815260200160002081905550600190506200038a565b600090505b92915050565b600080836001016000848152602001908152602001600020541415905092915050565b6000604051905090565b600080fd5b600080fd5b600080fd5b600080fd5b6000601f19601f8301169050919050565b7f4e487b7100000000000000000000000000000000000000000000000000000000600052604160045260246000fd5b6200041c82620003d1565b810181811067ffffffffffffffff821117156200043e576200043d620003e2565b5b80604052505050565b600062000453620003b3565b905062000461828262000411565b919050565b600067ffffffffffffffff821115620004845762000483620003e2565b5b6200048f82620003d1565b9050602081019050919050565b60005b83811015620004bc5780820151818401526020810190506200049f565b60008484015250505050565b6000620004df620004d98462000466565b62000447565b905082815260208101848484011115620004fe57620004fd620003cc565b5b6200050b8482856200049c565b509392505050565b600082601f8301126200052b576200052a620003c7565b5b81516200053d848260208601620004c8565b91505092915050565b6000602082840312156200055f576200055e620003bd565b5b600082015167ffffffffffffffff81111562000580576200057f620003c2565b5b6200058e8482850162000513565b91505092915050565b600081519050919050565b7f4e487b7100000000000000000000000000000000000000000000000000000000600052602260045260246000fd5b60006002820490506001821680620005ea57607f821691505b6020821081036200060057620005ff620005a2565b5b50919050565b60008190508160005260206000209050919050565b60006020601f8301049050919050565b600082821b905092915050565b6000600883026200066a7fffffffffffffffffffffffffffffffffffffffffffffffffffffffffffffffff826200062b565b6200067686836200062b565b95508019841693508086168417925050509392505050565b6000819050919050565b6000819050919050565b6000620006c3620006bd620006b7846200068e565b62000698565b6200068e565b9050919050565b6000819050919050565b620006df83620006a2565b620006f7620006ee82620006ca565b84845462000638565b825550505050565b600090565b6200070e620006ff565b6200071b818484620006d4565b505050565b5b8181101562000743576200073760008262000704565b60018101905062000721565b5050565b601f82111562000792576200075c8162000606565b62000767846200061b565b8101602085101562000777578190505b6200078f62000786856200061b565b83018262000720565b50505b505050565b600082821c905092915050565b6000620007b76000198460080262000797565b1980831691505092915050565b6000620007d28383620007a4565b9150826002028217905092915050565b620007ed8262000597565b67ffffffffffffffff811115620008095762000808620003e2565b5b620008158254620005d1565b6200082282828562000747565b600060209050601f8311600181146200085a576000841562000845578287015190505b620008518582620007c4565b865550620008c1565b601f1984166200086a8662000606565b60005b8281101562000894578489015182556001820191506020850194506020810190506200086d565b86831015620008b45784890151620008b0601f891682620007a4565b8355505b6001600288020188555050505b505050505050565b614ba780620008d96000396000f3fe608060405234801561001057600080fd5b50600436106101a25760003560e01c8063731133e9116100ee578063ca15c87311610097578063e63ab1e911610071578063e63ab1e914610475578063e985e9c514610493578063f242432a146104c3578063f5298aca146104df576101a2565b8063ca15c8731461040b578063d53913931461043b578063d547741f14610459576101a2565b806391d14854116100c857806391d14854146103a1578063a217fddf146103d1578063a22cb465146103ef576101a2565b8063731133e91461034b5780638456cb59146103675780639010d07c14610371576101a2565b80632f2ff15d116101505780634e1273f41161012a5780634e1273f4146102e15780635c975abb146103115780636b20c4541461032f576101a2565b80632f2ff15d1461029f57806336568abe146102bb5780633f4ba83a146102d7576101a2565b80631f7fdffa116101815780631f7fdffa14610237578063248a9ca3146102535780632eb2c2d614610283576101a2565b8062fdd58e146101a757806301ffc9a7146101d75780630e89341c14610207575b600080fd5b6101c160048036038101906101bc9190612f6c565b6104fb565b6040516101ce9190612fbb565b60405180910390f35b6101f160048036038101906101ec919061302e565b6105c4565b6040516101fe9190613076565b60405180910390f35b610221600480360381019061021c9190613091565b6105d6565b60405161022e919061314e565b60405180910390f35b610251600480360381019061024c919061336d565b61066a565b005b61026d6004803603810190610268919061345e565b6106ec565b60405161027a919061349a565b60405180910390f35b61029d600480360381019061029891906134b5565b61070b565b005b6102b960048036038101906102b49190613584565b6107ac565b005b6102d560048036038101906102d09190613584565b6107cd565b005b6102df610850565b005b6102fb60048036038101906102f69190613687565b6108ca565b60405161030891906137bd565b60405180910390f35b6103196109e3565b6040516103269190613076565b60405180910390f35b610349600480360381019061034491906137df565b6109fa565b005b6103656004803603810190610360919061386a565b610a97565b005b61036f610b19565b005b61038b600480360381019061038691906138ed565b610b93565b604051610398919061393c565b60405180910390f35b6103bb60048036038101906103b69190613584565b610bc2565b6040516103c89190613076565b60405180910390f35b6103d9610c2c565b6040516103e6919061349a565b60405180910390f35b61040960048036038101906104049190613983565b610c33565b005b6104256004803603810190610420919061345e565b610c49565b6040516104329190612fbb565b60405180910390f35b610443610c6d565b604051610450919061349a565b60405180910390f35b610473600480360381019061046e9190613584565b610c91565b005b61047d610cb2565b60405161048a919061349a565b60405180910390f35b6104ad60048036038101906104a891906139c3565b610cd6565b6040516104ba9190613076565b60405180910390f35b6104dd60048036038101906104d89190613a03565b610d6a565b005b6104f960048036038101906104f49190613a9a565b610e0b565b005b60008073ffffffffffffffffffffffffffffffffffffffff168373ffffffffffffffffffffffffffffffffffffffff160361056b576040517f08c379a000000000000000000000000000000000000000000000000000000000815260040161056290613b5f565b60405180910390fd5b6002600083815260200190815260200160002060008473ffffffffffffffffffffffffffffffffffffffff1673ffffffffffffffffffffffffffffffffffffffff16815260200190815260200160002054905092915050565b60006105cf82610ea8565b9050919050565b6060600480546105e590613bae565b80601f016020809104026020016040519081016040528092919081815260200182805461061190613bae565b801561065e5780601f106106335761010080835404028352916020019161065e565b820191906000526020600020905b81548152906001019060200180831161064157829003601f168201915b50505050509050919050565b61069b7f9f2df0fed2c77648de5860a4cc508cd0818c85b8b8a1ab4ceeef8d981c8956a6610696610f8a565b610bc2565b6106da576040517f08c379a00000000000000000000000000000000000000000000000000000000081526004016106d190613c51565b60405180910390fd5b6106e684848484610f92565b50505050565b6000806000838152602001908152602001600020600101549050919050565b610713610f8a565b73ffffffffffffffffffffffffffffffffffffffff168573ffffffffffffffffffffffffffffffffffffffff161480610759575061075885610753610f8a565b610cd6565b5b610798576040517f08c379a000000000000000000000000000000000000000000000000000000000815260040161078f90613ce3565b60405180910390fd5b6107a585858585856111bf565b5050505050565b6107b5826106ec565b6107be816114e3565b6107c883836114f7565b505050565b6107d5610f8a565b73ffffffffffffffffffffffffffffffffffffffff168173ffffffffffffffffffffffffffffffffffffffff1614610842576040517f08c379a000000000000000000000000000000000000000000000000000000000815260040161083990613d75565b60405180910390fd5b61084c828261152b565b5050565b6108817f65d7a28e3265b37a6474929f336521b332c1681b933f6cb9f3376673440d862a61087c610f8a565b610bc2565b6108c0576040517f08c379a00000000000000000000000000000000000000000000000000000000081526004016108b790613e07565b60405180910390fd5b6108c861155f565b565b60608151835114610910576040517f08c379a000000000000000000000000000000000000000000000000000000000815260040161090790613e99565b60405180910390fd5b6000835167ffffffffffffffff81111561092d5761092c613175565b5b60405190808252806020026020018201604052801561095b5781602001602082028036833780820191505090505b50905060005b84518110156109d8576109a88582815181106109805761097f613eb9565b5b602002602001015185838151811061099b5761099a613eb9565b5b60200260200101516104fb565b8282815181106109bb576109ba613eb9565b5b602002602001018181525050806109d190613f17565b9050610961565b508091505092915050565b6000600560009054906101000a900460ff16905090565b610a02610f8a565b73ffffffffffffffffffffffffffffffffffffffff168373ffffffffffffffffffffffffffffffffffffffff161480610a485750610a4783610a42610f8a565b610cd6565b5b610a87576040517f08c379a0000000000000000000000000000000000000000000000000000000008152600401610a7e90613ce3565b60405180910390fd5b610a928383836115c2565b505050565b610ac87f9f2df0fed2c77648de5860a4cc508cd0818c85b8b8a1ab4ceeef8d981c8956a6610ac3610f8a565b610bc2565b610b07576040517f08c379a0000000000000000000000000000000000000000000000000000000008152600401610afe90613c51565b60405180910390fd5b610b1384848484611892565b50505050565b610b4a7f65d7a28e3265b37a6474929f336521b332c1681b933f6cb9f3376673440d862a610b45610f8a565b610bc2565b610b89576040517f08c379a0000000000000000000000000000000000000000000000000000000008152600401610b8090613fd1565b60405180910390fd5b610b91611a43565b565b6000610bba8260016000868152602001908152602001600020611aa690919063ffffffff16565b905092915050565b600080600084815260200190815260200160002060000160008373ffffffffffffffffffffffffffffffffffffffff1673ffffffffffffffffffffffffffffffffffffffff16815260200190815260200160002060009054906101000a900460ff16905092915050565b6000801b81565b610c45610c3e610f8a565b8383611ac0565b5050565b6000610c6660016000848152602001908152602001600020611c2c565b9050919050565b7f9f2df0fed2c77648de5860a4cc508cd0818c85b8b8a1ab4ceeef8d981c8956a681565b610c9a826106ec565b610ca3816114e3565b610cad838361152b565b505050565b7f65d7a28e3265b37a6474929f336521b332c1681b933f6cb9f3376673440d862a81565b6000600360008473ffffffffffffffffffffffffffffffffffffffff1673ffffffffffffffffffffffffffffffffffffffff16815260200190815260200160002060008373ffffffffffffffffffffffffffffffffffffffff1673ffffffffffffffffffffffffffffffffffffffff16815260200190815260200160002060009054906101000a900460ff16905092915050565b610d72610f8a565b73ffffffffffffffffffffffffffffffffffffffff168573ffffffffffffffffffffffffffffffffffffffff161480610db85750610db785610db2610f8a565b610cd6565b5b610df7576040517f08c379a0000000000000000000000000000000000000000000000000000000008152600401610dee90613ce3565b60405180910390fd5b610e048585858585611c41565b5050505050565b610e13610f8a565b73ffffffffffffffffffffffffffffffffffffffff168373ffffffffffffffffffffffffffffffffffffffff161480610e595750610e5883610e53610f8a565b610cd6565b5b610e98576040517f08c379a0000000000000000000000000000000000000000000000000000000008152600401610e8f90613ce3565b60405180910390fd5b610ea3838383611edf565b505050565b60007fd9b67a26000000000000000000000000000000000000000000000000000000007bffffffffffffffffffffffffffffffffffffffffffffffffffffffff1916827bffffffffffffffffffffffffffffffffffffffffffffffffffffffff19161480610f7357507f0e89341c000000000000000000000000000000000000000000000000000000007bffffffffffffffffffffffffffffffffffffffffffffffffffffffff1916827bffffffffffffffffffffffffffffffffffffffffffffffffffffffff1916145b80610f835750610f8282612127565b5b9050919050565b600033905090565b600073ffffffffffffffffffffffffffffffffffffffff168473ffffffffffffffffffffffffffffffffffffffff1603611001576040517f08c379a0000000000000000000000000000000000000000000000000000000008152600401610ff890614063565b60405180910390fd5b8151835114611045576040517f08c379a000000000000000000000000000000000000000000000000000000000815260040161103c906140f5565b60405180910390fd5b600061104f610f8a565b9050611060816000878787876121a1565b60005b845181101561111a5783818151811061107f5761107e613eb9565b5b60200260200101516002600087848151811061109e5761109d613eb9565b5b6020026020010151815260200190815260200160002060008873ffffffffffffffffffffffffffffffffffffffff1673ffffffffffffffffffffffffffffffffffffffff16815260200190815260200160002060008282546111009190614115565b92505081905550808061111290613f17565b915050611063565b508473ffffffffffffffffffffffffffffffffffffffff16600073ffffffffffffffffffffffffffffffffffffffff168273ffffffffffffffffffffffffffffffffffffffff167f4a39dc06d4c0dbc64b70af90fd698a233a518aa5d07e595d983b8c0526c8f7fb8787604051611192929190614149565b60405180910390a46111a9816000878787876121b7565b6111b8816000878787876121bf565b5050505050565b8151835114611203576040517f08c379a00000000000000000000000000000000000000000000000000000000081526004016111fa906140f5565b60405180910390fd5b600073ffffffffffffffffffffffffffffffffffffffff168473ffffffffffffffffffffffffffffffffffffffff1603611272576040517f08c379a0000000000000000000000000000000000000000000000000000000008152600401611269906141f2565b60405180910390fd5b600061127c610f8a565b905061128c8187878787876121a1565b60005b84518110156114405760008582815181106112ad576112ac613eb9565b5b6020026020010151905060008583815181106112cc576112cb613eb9565b5b6020026020010151905060006002600084815260200190815260200160002060008b73ffffffffffffffffffffffffffffffffffffffff1673ffffffffffffffffffffffffffffffffffffffff1681526020019081526020016000205490508181101561136e576040517f08c379a000000000000000000000000000000000000000000000000000000000815260040161136590614284565b60405180910390fd5b8181036002600085815260200190815260200160002060008c73ffffffffffffffffffffffffffffffffffffffff1673ffffffffffffffffffffffffffffffffffffffff16815260200190815260200160002081905550816002600085815260200190815260200160002060008b73ffffffffffffffffffffffffffffffffffffffff1673ffffffffffffffffffffffffffffffffffffffff16815260200190815260200160002060008282546114259190614115565b925050819055505050508061143990613f17565b905061128f565b508473ffffffffffffffffffffffffffffffffffffffff168673ffffffffffffffffffffffffffffffffffffffff168273ffffffffffffffffffffffffffffffffffffffff167f4a39dc06d4c0dbc64b70af90fd698a233a518aa5d07e595d983b8c0526c8f7fb87876040516114b7929190614149565b60405180910390a46114cd8187878787876121b7565b6114db8187878787876121bf565b505050505050565b6114f4816114ef610f8a565b612396565b50565b6115018282612433565b611526816001600085815260200190815260200160002061251390919063ffffffff16565b505050565b6115358282612543565b61155a816001600085815260200190815260200160002061262490919063ffffffff16565b505050565b611567612654565b6000600560006101000a81548160ff0219169083151502179055507f5db9ee0a495bf2e6ff9c91a7834c1ba4fdd244a5e8aa4e537bd38aeae4b073aa6115ab610f8a565b6040516115b8919061393c565b60405180910390a1565b600073ffffffffffffffffffffffffffffffffffffffff168373ffffffffffffffffffffffffffffffffffffffff1603611631576040517f08c379a000000000000000000000000000000000000000000000000000000000815260040161162890614316565b60405180910390fd5b8051825114611675576040517f08c379a000000000000000000000000000000000000000000000000000000000815260040161166c906140f5565b60405180910390fd5b600061167f610f8a565b905061169f818560008686604051806020016040528060008152506121a1565b60005b83518110156117ee5760008482815181106116c0576116bf613eb9565b5b6020026020010151905060008483815181106116df576116de613eb9565b5b6020026020010151905060006002600084815260200190815260200160002060008973ffffffffffffffffffffffffffffffffffffffff1673ffffffffffffffffffffffffffffffffffffffff16815260200190815260200160002054905081811015611781576040517f08c379a0000000000000000000000000000000000000000000000000000000008152600401611778906143a8565b60405180910390fd5b8181036002600085815260200190815260200160002060008a73ffffffffffffffffffffffffffffffffffffffff1673ffffffffffffffffffffffffffffffffffffffff1681526020019081526020016000208190555050505080806117e690613f17565b9150506116a2565b50600073ffffffffffffffffffffffffffffffffffffffff168473ffffffffffffffffffffffffffffffffffffffff168273ffffffffffffffffffffffffffffffffffffffff167f4a39dc06d4c0dbc64b70af90fd698a233a518aa5d07e595d983b8c0526c8f7fb8686604051611866929190614149565b60405180910390a461188c818560008686604051806020016040528060008152506121b7565b50505050565b600073ffffffffffffffffffffffffffffffffffffffff168473ffffffffffffffffffffffffffffffffffffffff1603611901576040517f08c379a00000000000000000000000000000000000000000000000000000000081526004016118f890614063565b60405180910390fd5b600061190b610f8a565b905060006119188561269d565b905060006119258561269d565b9050611936836000898585896121a1565b846002600088815260200190815260200160002060008973ffffffffffffffffffffffffffffffffffffffff1673ffffffffffffffffffffffffffffffffffffffff16815260200190815260200160002060008282546119969190614115565b925050819055508673ffffffffffffffffffffffffffffffffffffffff16600073ffffffffffffffffffffffffffffffffffffffff168473ffffffffffffffffffffffffffffffffffffffff167fc3d58168c5ae7397731d063d5bbf3d657854427343f4c083240f7aacaa2d0f628989604051611a149291906143c8565b60405180910390a4611a2b836000898585896121b7565b611a3a83600089898989612717565b50505050505050565b611a4b6128ee565b6001600560006101000a81548160ff0219169083151502179055507f62e78cea01bee320cd4e420270b5ea74000d11b0c9f74754ebdbfc544b05a258611a8f610f8a565b604051611a9c919061393c565b60405180910390a1565b6000611ab58360000183612938565b60001c905092915050565b8173ffffffffffffffffffffffffffffffffffffffff168373ffffffffffffffffffffffffffffffffffffffff1603611b2e576040517f08c379a0000000000000000000000000000000000000000000000000000000008152600401611b2590614463565b60405180910390fd5b80600360008573ffffffffffffffffffffffffffffffffffffffff1673ffffffffffffffffffffffffffffffffffffffff16815260200190815260200160002060008473ffffffffffffffffffffffffffffffffffffffff1673ffffffffffffffffffffffffffffffffffffffff16815260200190815260200160002060006101000a81548160ff0219169083151502179055508173ffffffffffffffffffffffffffffffffffffffff168373ffffffffffffffffffffffffffffffffffffffff167f17307eab39ab6107e8899845ad3d59bd9653f200f220920489ca2b5937696c3183604051611c1f9190613076565b60405180910390a3505050565b6000611c3a82600001612963565b9050919050565b600073ffffffffffffffffffffffffffffffffffffffff168473ffffffffffffffffffffffffffffffffffffffff1603611cb0576040517f08c379a0000000000000000000000000000000000000000000000000000000008152600401611ca7906141f2565b60405180910390fd5b6000611cba610f8a565b90506000611cc78561269d565b90506000611cd48561269d565b9050611ce48389898585896121a1565b60006002600088815260200190815260200160002060008a73ffffffffffffffffffffffffffffffffffffffff1673ffffffffffffffffffffffffffffffffffffffff16815260200190815260200160002054905085811015611d7c576040517f08c379a0000000000000000000000000000000000000000000000000000000008152600401611d7390614284565b60405180910390fd5b8581036002600089815260200190815260200160002060008b73ffffffffffffffffffffffffffffffffffffffff1673ffffffffffffffffffffffffffffffffffffffff16815260200190815260200160002081905550856002600089815260200190815260200160002060008a73ffffffffffffffffffffffffffffffffffffffff1673ffffffffffffffffffffffffffffffffffffffff1681526020019081526020016000206000828254611e339190614115565b925050819055508773ffffffffffffffffffffffffffffffffffffffff168973ffffffffffffffffffffffffffffffffffffffff168573ffffffffffffffffffffffffffffffffffffffff167fc3d58168c5ae7397731d063d5bbf3d657854427343f4c083240f7aacaa2d0f628a8a604051611eb09291906143c8565b60405180910390a4611ec6848a8a86868a6121b7565b611ed4848a8a8a8a8a612717565b505050505050505050565b600073ffffffffffffffffffffffffffffffffffffffff168373ffffffffffffffffffffffffffffffffffffffff1603611f4e576040517f08c379a0000000000000000000000000000000000000000000000000000000008152600401611f4590614316565b60405180910390fd5b6000611f58610f8a565b90506000611f658461269d565b90506000611f728461269d565b9050611f92838760008585604051806020016040528060008152506121a1565b60006002600087815260200190815260200160002060008873ffffffffffffffffffffffffffffffffffffffff1673ffffffffffffffffffffffffffffffffffffffff1681526020019081526020016000205490508481101561202a576040517f08c379a0000000000000000000000000000000000000000000000000000000008152600401612021906143a8565b60405180910390fd5b8481036002600088815260200190815260200160002060008973ffffffffffffffffffffffffffffffffffffffff1673ffffffffffffffffffffffffffffffffffffffff16815260200190815260200160002081905550600073ffffffffffffffffffffffffffffffffffffffff168773ffffffffffffffffffffffffffffffffffffffff168573ffffffffffffffffffffffffffffffffffffffff167fc3d58168c5ae7397731d063d5bbf3d657854427343f4c083240f7aacaa2d0f6289896040516120f89291906143c8565b60405180910390a461211e848860008686604051806020016040528060008152506121b7565b50505050505050565b60007f5a05180f000000000000000000000000000000000000000000000000000000007bffffffffffffffffffffffffffffffffffffffffffffffffffffffff1916827bffffffffffffffffffffffffffffffffffffffffffffffffffffffff1916148061219a575061219982612974565b5b9050919050565b6121af8686868686866129ee565b505050505050565b505050505050565b6121de8473ffffffffffffffffffffffffffffffffffffffff16612a4c565b1561238e578373ffffffffffffffffffffffffffffffffffffffff1663bc197c8187878686866040518663ffffffff1660e01b81526004016122249594939291906144d8565b6020604051808303816000875af192505050801561226057506040513d601f19601f8201168201806040525081019061225d9190614555565b60015b6123055761226c61458f565b806308c379a0036122c857506122806145b1565b8061228b57506122ca565b806040517f08c379a00000000000000000000000000000000000000000000000000000000081526004016122bf919061314e565b60405180910390fd5b505b6040517f08c379a00000000000000000000000000000000000000000000000000000000081526004016122fc906146b3565b60405180910390fd5b63bc197c8160e01b7bffffffffffffffffffffffffffffffffffffffffffffffffffffffff1916817bffffffffffffffffffffffffffffffffffffffffffffffffffffffff19161461238c576040517f08c379a000000000000000000000000000000000000000000000000000000000815260040161238390614745565b60405180910390fd5b505b505050505050565b6123a08282610bc2565b61242f576123c58173ffffffffffffffffffffffffffffffffffffffff166014612a6f565b6123d38360001c6020612a6f565b6040516020016123e4929190614839565b6040516020818303038152906040526040517f08c379a0000000000000000000000000000000000000000000000000000000008152600401612426919061314e565b60405180910390fd5b5050565b61243d8282610bc2565b61250f57600160008084815260200190815260200160002060000160008373ffffffffffffffffffffffffffffffffffffffff1673ffffffffffffffffffffffffffffffffffffffff16815260200190815260200160002060006101000a81548160ff0219169083151502179055506124b4610f8a565b73ffffffffffffffffffffffffffffffffffffffff168173ffffffffffffffffffffffffffffffffffffffff16837f2f8788117e7eff1d82e926ec794901d17c78024a50270940304540a733656f0d60405160405180910390a45b5050565b600061253b836000018373ffffffffffffffffffffffffffffffffffffffff1660001b612cab565b905092915050565b61254d8282610bc2565b1561262057600080600084815260200190815260200160002060000160008373ffffffffffffffffffffffffffffffffffffffff1673ffffffffffffffffffffffffffffffffffffffff16815260200190815260200160002060006101000a81548160ff0219169083151502179055506125c5610f8a565b73ffffffffffffffffffffffffffffffffffffffff168173ffffffffffffffffffffffffffffffffffffffff16837ff6391f5c32d9c69d2a47ea670b442974b53935d1edc7fd64eb21e047a839171b60405160405180910390a45b5050565b600061264c836000018373ffffffffffffffffffffffffffffffffffffffff1660001b612d1b565b905092915050565b61265c6109e3565b61269b576040517f08c379a0000000000000000000000000000000000000000000000000000000008152600401612692906148bf565b60405180910390fd5b565b60606000600167ffffffffffffffff8111156126bc576126bb613175565b5b6040519080825280602002602001820160405280156126ea5781602001602082028036833780820191505090505b509050828160008151811061270257612701613eb9565b5b60200260200101818152505080915050919050565b6127368473ffffffffffffffffffffffffffffffffffffffff16612a4c565b156128e6578373ffffffffffffffffffffffffffffffffffffffff1663f23a6e6187878686866040518663ffffffff1660e01b815260040161277c9594939291906148df565b6020604051808303816000875af19250505080156127b857506040513d601f19601f820116820180604052508101906127b59190614555565b60015b61285d576127c461458f565b806308c379a00361282057506127d86145b1565b806127e35750612822565b806040517f08c379a0000000000000000000000000000000000000000000000000000000008152600401612817919061314e565b60405180910390fd5b505b6040517f08c379a0000000000000000000000000000000000000000000000000000000008152600401612854906146b3565b60405180910390fd5b63f23a6e6160e01b7bffffffffffffffffffffffffffffffffffffffffffffffffffffffff1916817bffffffffffffffffffffffffffffffffffffffffffffffffffffffff1916146128e4576040517f08c379a00000000000000000000000000000000000000000000000000000000081526004016128db90614745565b60405180910390fd5b505b505050505050565b6128f66109e3565b15612936576040517f08c379a000000000000000000000000000000000000000000000000000000000815260040161292d90614985565b60405180910390fd5b565b60008260000182815481106129505761294f613eb9565b5b9060005260206000200154905092915050565b600081600001805490509050919050565b60007f7965db0b000000000000000000000000000000000000000000000000000000007bffffffffffffffffffffffffffffffffffffffffffffffffffffffff1916827bffffffffffffffffffffffffffffffffffffffffffffffffffffffff191614806129e757506129e682612e2f565b5b9050919050565b6129fc868686868686612e99565b612a046109e3565b15612a44576040517f08c379a0000000000000000000000000000000000000000000000000000000008152600401612a3b90614a17565b60405180910390fd5b505050505050565b6000808273ffffffffffffffffffffffffffffffffffffffff163b119050919050565b606060006002836002612a829190614a37565b612a8c9190614115565b67ffffffffffffffff811115612aa557612aa4613175565b5b6040519080825280601f01601f191660200182016040528015612ad75781602001600182028036833780820191505090505b5090507f300000000000000000000000000000000000000000000000000000000000000081600081518110612b0f57612b0e613eb9565b5b60200101907effffffffffffffffffffffffffffffffffffffffffffffffffffffffffffff1916908160001a9053507f780000000000000000000000000000000000000000000000000000000000000081600181518110612b7357612b72613eb9565b5b60200101907effffffffffffffffffffffffffffffffffffffffffffffffffffffffffffff1916908160001a90535060006001846002612bb39190614a37565b612bbd9190614115565b90505b6001811115612c5d577f3031323334353637383961626364656600000000000000000000000000000000600f861660108110612bff57612bfe613eb9565b5b1a60f81b828281518110612c1657612c15613eb9565b5b60200101907effffffffffffffffffffffffffffffffffffffffffffffffffffffffffffff1916908160001a905350600485901c945080612c5690614a79565b9050612bc0565b5060008414612ca1576040517f08c379a0000000000000000000000000000000000000000000000000000000008152600401612c9890614aee565b60405180910390fd5b8091505092915050565b6000612cb78383612ea1565b612d10578260000182908060018154018082558091505060019003906000526020600020016000909190919091505582600001805490508360010160008481526020019081526020016000208190555060019050612d15565b600090505b92915050565b60008083600101600084815260200190815260200160002054905060008114612e23576000600182612d4d9190614b0e565b9050600060018660000180549050612d659190614b0e565b9050818114612dd4576000866000018281548110612d8657612d85613eb9565b5b9060005260206000200154905080876000018481548110612daa57612da9613eb9565b5b90600052602060002001819055508387600101600083815260200190815260200160002081905550505b85600001805480612de857612de7614b42565b5b600190038181906000526020600020016000905590558560010160008681526020019081526020016000206000905560019350505050612e29565b60009150505b92915050565b60007f01ffc9a7000000000000000000000000000000000000000000000000000000007bffffffffffffffffffffffffffffffffffffffffffffffffffffffff1916827bffffffffffffffffffffffffffffffffffffffffffffffffffffffff1916149050919050565b505050505050565b600080836001016000848152602001908152602001600020541415905092915050565b6000604051905090565b600080fd5b600080fd5b600073ffffffffffffffffffffffffffffffffffffffff82169050919050565b6000612f0382612ed8565b9050919050565b612f1381612ef8565b8114612f1e57600080fd5b50565b600081359050612f3081612f0a565b92915050565b6000819050919050565b612f4981612f36565b8114612f5457600080fd5b50565b600081359050612f6681612f40565b92915050565b60008060408385031215612f8357612f82612ece565b5b6000612f9185828601612f21565b9250506020612fa285828601612f57565b9150509250929050565b612fb581612f36565b82525050565b6000602082019050612fd06000830184612fac565b92915050565b60007fffffffff0000000000000000000000000000000000000000000000000000000082169050919050565b61300b81612fd6565b811461301657600080fd5b50565b60008135905061302881613002565b92915050565b60006020828403121561304457613043612ece565b5b600061305284828501613019565b91505092915050565b60008115159050919050565b6130708161305b565b82525050565b600060208201905061308b6000830184613067565b92915050565b6000602082840312156130a7576130a6612ece565b5b60006130b584828501612f57565b91505092915050565b600081519050919050565b600082825260208201905092915050565b60005b838110156130f85780820151818401526020810190506130dd565b60008484015250505050565b6000601f19601f8301169050919050565b6000613120826130be565b61312a81856130c9565b935061313a8185602086016130da565b61314381613104565b840191505092915050565b600060208201905081810360008301526131688184613115565b905092915050565b600080fd5b7f4e487b7100000000000000000000000000000000000000000000000000000000600052604160045260246000fd5b6131ad82613104565b810181811067ffffffffffffffff821117156131cc576131cb613175565b5b80604052505050565b60006131df612ec4565b90506131eb82826131a4565b919050565b600067ffffffffffffffff82111561320b5761320a613175565b5b602082029050602081019050919050565b600080fd5b600061323461322f846131f0565b6131d5565b905080838252602082019050602084028301858111156132575761325661321c565b5b835b81811015613280578061326c8882612f57565b845260208401935050602081019050613259565b5050509392505050565b600082601f83011261329f5761329e613170565b5b81356132af848260208601613221565b91505092915050565b600080fd5b600067ffffffffffffffff8211156132d8576132d7613175565b5b6132e182613104565b9050602081019050919050565b82818337600083830152505050565b600061331061330b846132bd565b6131d5565b90508281526020810184848401111561332c5761332b6132b8565b5b6133378482856132ee565b509392505050565b600082601f83011261335457613353613170565b5b81356133648482602086016132fd565b91505092915050565b6000806000806080858703121561338757613386612ece565b5b600061339587828801612f21565b945050602085013567ffffffffffffffff8111156133b6576133b5612ed3565b5b6133c28782880161328a565b935050604085013567ffffffffffffffff8111156133e3576133e2612ed3565b5b6133ef8782880161328a565b925050606085013567ffffffffffffffff8111156134105761340f612ed3565b5b61341c8782880161333f565b91505092959194509250565b6000819050919050565b61343b81613428565b811461344657600080fd5b50565b60008135905061345881613432565b92915050565b60006020828403121561347457613473612ece565b5b600061348284828501613449565b91505092915050565b61349481613428565b82525050565b60006020820190506134af600083018461348b565b92915050565b600080600080600060a086880312156134d1576134d0612ece565b5b60006134df88828901612f21565b95505060206134f088828901612f21565b945050604086013567ffffffffffffffff81111561351157613510612ed3565b5b61351d8882890161328a565b935050606086013567ffffffffffffffff81111561353e5761353d612ed3565b5b61354a8882890161328a565b925050608086013567ffffffffffffffff81111561356b5761356a612ed3565b5b6135778882890161333f565b9150509295509295909350565b6000806040838503121561359b5761359a612ece565b5b60006135a985828601613449565b92505060206135ba85828601612f21565b9150509250929050565b600067ffffffffffffffff8211156135df576135de613175565b5b602082029050602081019050919050565b60006136036135fe846135c4565b6131d5565b905080838252602082019050602084028301858111156136265761362561321c565b5b835b8181101561364f578061363b8882612f21565b845260208401935050602081019050613628565b5050509392505050565b600082601f83011261366e5761366d613170565b5b813561367e8482602086016135f0565b91505092915050565b6000806040838503121561369e5761369d612ece565b5b600083013567ffffffffffffffff8111156136bc576136bb612ed3565b5b6136c885828601613659565b925050602083013567ffffffffffffffff8111156136e9576136e8612ed3565b5b6136f58582860161328a565b9150509250929050565b600081519050919050565b600082825260208201905092915050565b6000819050602082019050919050565b61373481612f36565b82525050565b6000613746838361372b565b60208301905092915050565b6000602082019050919050565b600061376a826136ff565b613774818561370a565b935061377f8361371b565b8060005b838110156137b0578151613797888261373a565b97506137a283613752565b925050600181019050613783565b5085935050505092915050565b600060208201905081810360008301526137d7818461375f565b905092915050565b6000806000606084860312156137f8576137f7612ece565b5b600061380686828701612f21565b935050602084013567ffffffffffffffff81111561382757613826612ed3565b5b6138338682870161328a565b925050604084013567ffffffffffffffff81111561385457613853612ed3565b5b6138608682870161328a565b9150509250925092565b6000806000806080858703121561388457613883612ece565b5b600061389287828801612f21565b94505060206138a387828801612f57565b93505060406138b487828801612f57565b925050606085013567ffffffffffffffff8111156138d5576138d4612ed3565b5b6138e18782880161333f565b91505092959194509250565b6000806040838503121561390457613903612ece565b5b600061391285828601613449565b925050602061392385828601612f57565b9150509250929050565b61393681612ef8565b82525050565b6000602082019050613951600083018461392d565b92915050565b6139608161305b565b811461396b57600080fd5b50565b60008135905061397d81613957565b92915050565b6000806040838503121561399a57613999612ece565b5b60006139a885828601612f21565b92505060206139b98582860161396e565b9150509250929050565b600080604083850312156139da576139d9612ece565b5b60006139e885828601612f21565b92505060206139f985828601612f21565b9150509250929050565b600080600080600060a08688031215613a1f57613a1e612ece565b5b6000613a2d88828901612f21565b9550506020613a3e88828901612f21565b9450506040613a4f88828901612f57565b9350506060613a6088828901612f57565b925050608086013567ffffffffffffffff811115613a8157613a80612ed3565b5b613a8d8882890161333f565b9150509295509295909350565b600080600060608486031215613ab357613ab2612ece565b5b6000613ac186828701612f21565b9350506020613ad286828701612f57565b9250506040613ae386828701612f57565b9150509250925092565b7f455243313135353a2061646472657373207a65726f206973206e6f742061207660008201527f616c6964206f776e657200000000000000000000000000000000000000000000602082015250565b6000613b49602a836130c9565b9150613b5482613aed565b604082019050919050565b60006020820190508181036000830152613b7881613b3c565b9050919050565b7f4e487b7100000000000000000000000000000000000000000000000000000000600052602260045260246000fd5b60006002820490506001821680613bc657607f821691505b602082108103613bd957613bd8613b7f565b5b50919050565b7f455243313135355072657365744d696e7465725061757365723a206d7573742060008201527f68617665206d696e74657220726f6c6520746f206d696e740000000000000000602082015250565b6000613c3b6038836130c9565b9150613c4682613bdf565b604082019050919050565b60006020820190508181036000830152613c6a81613c2e565b9050919050565b7f455243313135353a2063616c6c6572206973206e6f7420746f6b656e206f776e60008201527f6572206e6f7220617070726f7665640000000000000000000000000000000000602082015250565b6000613ccd602f836130c9565b9150613cd882613c71565b604082019050919050565b60006020820190508181036000830152613cfc81613cc0565b9050919050565b7f416363657373436f6e74726f6c3a2063616e206f6e6c792072656e6f756e636560008201527f20726f6c657320666f722073656c660000000000000000000000000000000000602082015250565b6000613d5f602f836130c9565b9150613d6a82613d03565b604082019050919050565b60006020820190508181036000830152613d8e81613d52565b9050919050565b7f455243313135355072657365744d696e7465725061757365723a206d7573742060008201527f686176652070617573657220726f6c6520746f20756e70617573650000000000602082015250565b6000613df1603b836130c9565b9150613dfc82613d95565b604082019050919050565b60006020820190508181036000830152613e2081613de4565b9050919050565b7f455243313135353a206163636f756e747320616e6420696473206c656e67746860008201527f206d69736d617463680000000000000000000000000000000000000000000000602082015250565b6000613e836029836130c9565b9150613e8e82613e27565b604082019050919050565b60006020820190508181036000830152613eb281613e76565b9050919050565b7f4e487b7100000000000000000000000000000000000000000000000000000000600052603260045260246000fd5b7f4e487b7100000000000000000000000000000000000000000000000000000000600052601160045260246000fd5b6000613f2282612f36565b91507fffffffffffffffffffffffffffffffffffffffffffffffffffffffffffffffff8203613f5457613f53613ee8565b5b600182019050919050565b7f455243313135355072657365744d696e7465725061757365723a206d7573742060008201527f686176652070617573657220726f6c6520746f20706175736500000000000000602082015250565b6000613fbb6039836130c9565b9150613fc682613f5f565b604082019050919050565b60006020820190508181036000830152613fea81613fae565b9050919050565b7f455243313135353a206d696e7420746f20746865207a65726f2061646472657360008201527f7300000000000000000000000000000000000000000000000000000000000000602082015250565b600061404d6021836130c9565b915061405882613ff1565b604082019050919050565b6000602082019050818103600083015261407c81614040565b9050919050565b7f455243313135353a2069647320616e6420616d6f756e7473206c656e6774682060008201527f6d69736d61746368000000000000000000000000000000000000000000000000602082015250565b60006140df6028836130c9565b91506140ea82614083565b604082019050919050565b6000602082019050818103600083015261410e816140d2565b9050919050565b600061412082612f36565b915061412b83612f36565b925082820190508082111561414357614142613ee8565b5b92915050565b60006040820190508181036000830152614163818561375f565b90508181036020830152614177818461375f565b90509392505050565b7f455243313135353a207472616e7366657220746f20746865207a65726f20616460008201527f6472657373000000000000000000000000000000000000000000000000000000602082015250565b60006141dc6025836130c9565b91506141e782614180565b604082019050919050565b6000602082019050818103600083015261420b816141cf565b9050919050565b7f455243313135353a20696e73756666696369656e742062616c616e636520666f60008201527f72207472616e7366657200000000000000000000000000000000000000000000602082015250565b600061426e602a836130c9565b915061427982614212565b604082019050919050565b6000602082019050818103600083015261429d81614261565b9050919050565b7f455243313135353a206275726e2066726f6d20746865207a65726f206164647260008201527f6573730000000000000000000000000000000000000000000000000000000000602082015250565b60006143006023836130c9565b915061430b826142a4565b604082019050919050565b6000602082019050818103600083015261432f816142f3565b9050919050565b7f455243313135353a206275726e20616d6f756e7420657863656564732062616c60008201527f616e636500000000000000000000000000000000000000000000000000000000602082015250565b60006143926024836130c9565b915061439d82614336565b604082019050919050565b600060208201905081810360008301526143c181614385565b9050919050565b60006040820190506143dd6000830185612fac565b6143ea6020830184612fac565b9392505050565b7f455243313135353a2073657474696e6720617070726f76616c2073746174757360008201527f20666f722073656c660000000000000000000000000000000000000000000000602082015250565b600061444d6029836130c9565b9150614458826143f1565b604082019050919050565b6000602082019050818103600083015261447c81614440565b9050919050565b600081519050919050565b600082825260208201905092915050565b60006144aa82614483565b6144b4818561448e565b93506144c48185602086016130da565b6144cd81613104565b840191505092915050565b600060a0820190506144ed600083018861392d565b6144fa602083018761392d565b818103604083015261450c818661375f565b90508181036060830152614520818561375f565b90508181036080830152614534818461449f565b90509695505050505050565b60008151905061454f81613002565b92915050565b60006020828403121561456b5761456a612ece565b5b600061457984828501614540565b91505092915050565b60008160e01c9050919050565b600060033d11156145ae5760046000803e6145ab600051614582565b90505b90565b600060443d1061463e576145c3612ec4565b60043d036004823e80513d602482011167ffffffffffffffff821117156145eb57505061463e565b808201805167ffffffffffffffff811115614609575050505061463e565b80602083010160043d03850181111561462657505050505061463e565b614635826020018501866131a4565b82955050505050505b90565b7f455243313135353a207472616e7366657220746f206e6f6e204552433131353560008201527f526563656976657220696d706c656d656e746572000000000000000000000000602082015250565b600061469d6034836130c9565b91506146a882614641565b604082019050919050565b600060208201905081810360008301526146cc81614690565b9050919050565b7f455243313135353a204552433131353552656365697665722072656a6563746560008201527f6420746f6b656e73000000000000000000000000000000000000000000000000602082015250565b600061472f6028836130c9565b915061473a826146d3565b604082019050919050565b6000602082019050818103600083015261475e81614722565b9050919050565b600081905092915050565b7f416363657373436f6e74726f6c3a206163636f756e7420000000000000000000600082015250565b60006147a6601783614765565b91506147b182614770565b601782019050919050565b60006147c7826130be565b6147d18185614765565b93506147e18185602086016130da565b80840191505092915050565b7f206973206d697373696e6720726f6c6520000000000000000000000000000000600082015250565b6000614823601183614765565b915061482e826147ed565b601182019050919050565b600061484482614799565b915061485082856147bc565b915061485b82614816565b915061486782846147bc565b91508190509392505050565b7f5061757361626c653a206e6f7420706175736564000000000000000000000000600082015250565b60006148a96014836130c9565b91506148b482614873565b602082019050919050565b600060208201905081810360008301526148d88161489c565b9050919050565b600060a0820190506148f4600083018861392d565b614901602083018761392d565b61490e6040830186612fac565b61491b6060830185612fac565b818103608083015261492d818461449f565b90509695505050505050565b7f5061757361626c653a2070617573656400000000000000000000000000000000600082015250565b600061496f6010836130c9565b915061497a82614939565b602082019050919050565b6000602082019050818103600083015261499e81614962565b9050919050565b7f455243313135355061757361626c653a20746f6b656e207472616e736665722060008201527f7768696c65207061757365640000000000000000000000000000000000000000602082015250565b6000614a01602c836130c9565b9150614a0c826149a5565b604082019050919050565b60006020820190508181036000830152614a30816149f4565b9050919050565b6000614a4282612f36565b9150614a4d83612f36565b9250828202614a5b81612f36565b91508282048414831517614a7257614a71613ee8565b5b5092915050565b6000614a8482612f36565b915060008203614a9757614a96613ee8565b5b600182039050919050565b7f537472696e67733a20686578206c656e67746820696e73756666696369656e74600082015250565b6000614ad86020836130c9565b9150614ae382614aa2565b602082019050919050565b60006020820190508181036000830152614b0781614acb565b9050919050565b6000614b1982612f36565b9150614b2483612f36565b9250828203905081811115614b3c57614b3b613ee8565b5b92915050565b7f4e487b7100000000000000000000000000000000000000000000000000000000600052603160045260246000fdfea2646970667358221220d630b5fdf780e343e3c5194f7d1c619d252a20bfdd13bcd6e1005c15ccd981f564736f6c63430008130033",
  "immutableReferences": {},
  "source": "// SPDX-License-Identifier: MIT\n// OpenZeppelin Contracts (last updated v4.5.0) (token/ERC1155/presets/ERC1155PresetMinterPauser.sol)\n\npragma solidity ^0.8.0;\n\nimport \"../ERC1155.sol\";\nimport \"../extensions/ERC1155Burnable.sol\";\nimport \"../extensions/ERC1155Pausable.sol\";\nimport \"../../../access/AccessControlEnumerable.sol\";\nimport \"../../../utils/Context.sol\";\n\n/**\n * @dev {ERC1155} token, including:\n *\n *  - ability for holders to burn (destroy) their tokens\n *  - a minter role that allows for token minting (creation)\n *  - a pauser role that allows to stop all token transfers\n *\n * This contract uses {AccessControl} to lock permissioned functions using the\n * different roles - head to its documentation for details.\n *\n * The account that deploys the contract will be granted the minter and pauser\n * roles, as well as the default admin role, which will let it grant both minter\n * and pauser roles to other accounts.\n *\n * _Deprecated in favor of https://wizard.openzeppelin.com/[Contracts Wizard]._\n */\ncontract ERC1155PresetMinterPauser is Context, AccessControlEnumerable, ERC1155Burnable, ERC1155Pausable {\n    bytes32 public constant MINTER_ROLE = keccak256(\"MINTER_ROLE\");\n    bytes32 public constant PAUSER_ROLE = keccak256(\"PAUSER_ROLE\");\n\n    /**\n     * @dev Grants `DEFAULT_ADMIN_ROLE`, `MINTER_ROLE`, and `PAUSER_ROLE` to the account that\n     * deploys the contract.\n     */\n    constructor(string memory uri) ERC1155(uri) {\n        _setupRole(DEFAULT_ADMIN_ROLE, _msgSender());\n\n        _setupRole(MINTER_ROLE, _msgSender());\n        _setupRole(PAUSER_ROLE, _msgSender());\n    }\n\n    /**\n     * @dev Creates `amount` new tokens for `to`, of token type `id`.\n     *\n     * See {ERC1155-_mint}.\n     *\n     * Requirements:\n     *\n     * - the caller must have the `MINTER_ROLE`.\n     */\n    function mint(\n        address to,\n        uint256 id,\n        uint256 amount,\n        bytes memory data\n    ) public virtual {\n        require(hasRole(MINTER_ROLE, _msgSender()), \"ERC1155PresetMinterPauser: must have minter role to mint\");\n\n        _mint(to, id, amount, data);\n    }\n\n    /**\n     * @dev xref:ROOT:erc1155.adoc#batch-operations[Batched] variant of {mint}.\n     */\n    function mintBatch(\n        address to,\n        uint256[] memory ids,\n        uint256[] memory amounts,\n        bytes memory data\n    ) public virtual {\n        require(hasRole(MINTER_ROLE, _msgSender()), \"ERC1155PresetMinterPauser: must have minter role to mint\");\n\n        _mintBatch(to, ids, amounts, data);\n    }\n\n    /**\n     * @dev Pauses all token transfers.\n     *\n     * See {ERC1155Pausable} and {Pausable-_pause}.\n     *\n     * Requirements:\n     *\n     * - the caller must have the `PAUSER_ROLE`.\n     */\n    function pause() public virtual {\n        require(hasRole(PAUSER_ROLE, _msgSender()), \"ERC1155PresetMinterPauser: must have pauser role to pause\");\n        _pause();\n    }\n\n    /**\n     * @dev Unpauses all token transfers.\n     *\n     * See {ERC1155Pausable} and {Pausable-_unpause}.\n     *\n     * Requirements:\n     *\n     * - the caller must have the `PAUSER_ROLE`.\n     */\n    function unpause() public virtual {\n        require(hasRole(PAUSER_ROLE, _msgSender()), \"ERC1155PresetMinterPauser: must have pauser role to unpause\");\n        _unpause();\n    }\n\n    /**\n     * @dev See {IERC165-supportsInterface}.\n     */\n    function supportsInterface(bytes4 interfaceId)\n        public\n        view\n        virtual\n        override(AccessControlEnumerable, ERC1155)\n        returns (bool)\n    {\n        return super.supportsInterface(interfaceId);\n    }\n\n    function _beforeTokenTransfer(\n        address operator,\n        address from,\n        address to,\n        uint256[] memory ids,\n        uint256[] memory amounts,\n        bytes memory data\n    ) internal virtual override(ERC1155, ERC1155Pausable) {\n        super._beforeTokenTransfer(operator, from, to, ids, amounts, data);\n    }\n}\n",
  "sourcePath": "/Users/marciovieira/Desktop/__/CA_Blockchain/DCU_MKT_PLC/contracts/@openzeppelin/contracts/token/ERC1155/presets/ERC1155PresetMinterPauser.sol",
  "compiler": {
    "name": "solc",
    "version": "0.8.19+commit.7dd6d404.Emscripten.clang"
  },
  "schemaVersion": "3.4.16",
  "updatedAt": "2024-03-09T18:08:13.748Z",
  "devdoc": {
    "details": "{ERC1155} token, including:  - ability for holders to burn (destroy) their tokens  - a minter role that allows for token minting (creation)  - a pauser role that allows to stop all token transfers This contract uses {AccessControl} to lock permissioned functions using the different roles - head to its documentation for details. The account that deploys the contract will be granted the minter and pauser roles, as well as the default admin role, which will let it grant both minter and pauser roles to other accounts. _Deprecated in favor of https://wizard.openzeppelin.com/[Contracts Wizard]._",
    "events": {
      "ApprovalForAll(address,address,bool)": {
        "details": "Emitted when `account` grants or revokes permission to `operator` to transfer their tokens, according to `approved`."
      },
      "Paused(address)": {
        "details": "Emitted when the pause is triggered by `account`."
      },
      "RoleAdminChanged(bytes32,bytes32,bytes32)": {
        "details": "Emitted when `newAdminRole` is set as ``role``'s admin role, replacing `previousAdminRole` `DEFAULT_ADMIN_ROLE` is the starting admin for all roles, despite {RoleAdminChanged} not being emitted signaling this. _Available since v3.1._"
      },
      "RoleGranted(bytes32,address,address)": {
        "details": "Emitted when `account` is granted `role`. `sender` is the account that originated the contract call, an admin role bearer except when using {AccessControl-_setupRole}."
      },
      "RoleRevoked(bytes32,address,address)": {
        "details": "Emitted when `account` is revoked `role`. `sender` is the account that originated the contract call:   - if using `revokeRole`, it is the admin role bearer   - if using `renounceRole`, it is the role bearer (i.e. `account`)"
      },
      "TransferBatch(address,address,address,uint256[],uint256[])": {
        "details": "Equivalent to multiple {TransferSingle} events, where `operator`, `from` and `to` are the same for all transfers."
      },
      "TransferSingle(address,address,address,uint256,uint256)": {
        "details": "Emitted when `value` tokens of token type `id` are transferred from `from` to `to` by `operator`."
      },
      "URI(string,uint256)": {
        "details": "Emitted when the URI for token type `id` changes to `value`, if it is a non-programmatic URI. If an {URI} event was emitted for `id`, the standard https://eips.ethereum.org/EIPS/eip-1155#metadata-extensions[guarantees] that `value` will equal the value returned by {IERC1155MetadataURI-uri}."
      },
      "Unpaused(address)": {
        "details": "Emitted when the pause is lifted by `account`."
      }
    },
    "kind": "dev",
    "methods": {
      "balanceOf(address,uint256)": {
        "details": "See {IERC1155-balanceOf}. Requirements: - `account` cannot be the zero address."
      },
      "balanceOfBatch(address[],uint256[])": {
        "details": "See {IERC1155-balanceOfBatch}. Requirements: - `accounts` and `ids` must have the same length."
      },
      "constructor": {
        "details": "Grants `DEFAULT_ADMIN_ROLE`, `MINTER_ROLE`, and `PAUSER_ROLE` to the account that deploys the contract."
      },
      "getRoleAdmin(bytes32)": {
        "details": "Returns the admin role that controls `role`. See {grantRole} and {revokeRole}. To change a role's admin, use {_setRoleAdmin}."
      },
      "getRoleMember(bytes32,uint256)": {
        "details": "Returns one of the accounts that have `role`. `index` must be a value between 0 and {getRoleMemberCount}, non-inclusive. Role bearers are not sorted in any particular way, and their ordering may change at any point. WARNING: When using {getRoleMember} and {getRoleMemberCount}, make sure you perform all queries on the same block. See the following https://forum.openzeppelin.com/t/iterating-over-elements-on-enumerableset-in-openzeppelin-contracts/2296[forum post] for more information."
      },
      "getRoleMemberCount(bytes32)": {
        "details": "Returns the number of accounts that have `role`. Can be used together with {getRoleMember} to enumerate all bearers of a role."
      },
      "grantRole(bytes32,address)": {
        "details": "Grants `role` to `account`. If `account` had not been already granted `role`, emits a {RoleGranted} event. Requirements: - the caller must have ``role``'s admin role. May emit a {RoleGranted} event."
      },
      "hasRole(bytes32,address)": {
        "details": "Returns `true` if `account` has been granted `role`."
      },
      "isApprovedForAll(address,address)": {
        "details": "See {IERC1155-isApprovedForAll}."
      },
      "mint(address,uint256,uint256,bytes)": {
        "details": "Creates `amount` new tokens for `to`, of token type `id`. See {ERC1155-_mint}. Requirements: - the caller must have the `MINTER_ROLE`."
      },
      "mintBatch(address,uint256[],uint256[],bytes)": {
        "details": "xref:ROOT:erc1155.adoc#batch-operations[Batched] variant of {mint}."
      },
      "pause()": {
        "details": "Pauses all token transfers. See {ERC1155Pausable} and {Pausable-_pause}. Requirements: - the caller must have the `PAUSER_ROLE`."
      },
      "paused()": {
        "details": "Returns true if the contract is paused, and false otherwise."
      },
      "renounceRole(bytes32,address)": {
        "details": "Revokes `role` from the calling account. Roles are often managed via {grantRole} and {revokeRole}: this function's purpose is to provide a mechanism for accounts to lose their privileges if they are compromised (such as when a trusted device is misplaced). If the calling account had been revoked `role`, emits a {RoleRevoked} event. Requirements: - the caller must be `account`. May emit a {RoleRevoked} event."
      },
      "revokeRole(bytes32,address)": {
        "details": "Revokes `role` from `account`. If `account` had been granted `role`, emits a {RoleRevoked} event. Requirements: - the caller must have ``role``'s admin role. May emit a {RoleRevoked} event."
      },
      "safeBatchTransferFrom(address,address,uint256[],uint256[],bytes)": {
        "details": "See {IERC1155-safeBatchTransferFrom}."
      },
      "safeTransferFrom(address,address,uint256,uint256,bytes)": {
        "details": "See {IERC1155-safeTransferFrom}."
      },
      "setApprovalForAll(address,bool)": {
        "details": "See {IERC1155-setApprovalForAll}."
      },
      "supportsInterface(bytes4)": {
        "details": "See {IERC165-supportsInterface}."
      },
      "unpause()": {
        "details": "Unpauses all token transfers. See {ERC1155Pausable} and {Pausable-_unpause}. Requirements: - the caller must have the `PAUSER_ROLE`."
      },
      "uri(uint256)": {
        "details": "See {IERC1155MetadataURI-uri}. This implementation returns the same URI for *all* token types. It relies on the token type ID substitution mechanism https://eips.ethereum.org/EIPS/eip-1155#metadata[defined in the EIP]. Clients calling this function must replace the `\\{id\\}` substring with the actual token type ID."
      }
    },
    "version": 1
  },
  "userdoc": {
    "kind": "user",
    "methods": {},
    "version": 1
  }
}