{
  "contractName": "ERC20PresetFixedSupply",
  "abi": [
    {
      "inputs": [
        {
          "internalType": "string",
          "name": "name",
          "type": "string"
        },
        {
          "internalType": "string",
          "name": "symbol",
          "type": "string"
        },
        {
          "internalType": "uint256",
          "name": "initialSupply",
          "type": "uint256"
        },
        {
          "internalType": "address",
          "name": "owner",
          "type": "address"
        }
      ],
      "stateMutability": "nonpayable",
      "type": "constructor"
    },
    {
      "anonymous": false,
      "inputs": [
        {
          "indexed": true,
          "internalType": "address",
          "name": "owner",
          "type": "address"
        },
        {
          "indexed": true,
          "internalType": "address",
          "name": "spender",
          "type": "address"
        },
        {
          "indexed": false,
          "internalType": "uint256",
          "name": "value",
          "type": "uint256"
        }
      ],
      "name": "Approval",
      "type": "event"
    },
    {
      "anonymous": false,
      "inputs": [
        {
          "indexed": true,
          "internalType": "address",
          "name": "from",
          "type": "address"
        },
        {
          "indexed": true,
          "internalType": "address",
          "name": "to",
          "type": "address"
        },
        {
          "indexed": false,
          "internalType": "uint256",
          "name": "value",
          "type": "uint256"
        }
      ],
      "name": "Transfer",
      "type": "event"
    },
    {
      "inputs": [
        {
          "internalType": "address",
          "name": "owner",
          "type": "address"
        },
        {
          "internalType": "address",
          "name": "spender",
          "type": "address"
        }
      ],
      "name": "allowance",
      "outputs": [
        {
          "internalType": "uint256",
          "name": "",
          "type": "uint256"
        }
      ],
      "stateMutability": "view",
      "type": "function"
    },
    {
      "inputs": [
        {
          "internalType": "address",
          "name": "spender",
          "type": "address"
        },
        {
          "internalType": "uint256",
          "name": "amount",
          "type": "uint256"
        }
      ],
      "name": "approve",
      "outputs": [
        {
          "internalType": "bool",
          "name": "",
          "type": "bool"
        }
      ],
      "stateMutability": "nonpayable",
      "type": "function"
    },
    {
      "inputs": [
        {
          "internalType": "address",
          "name": "account",
          "type": "address"
        }
      ],
      "name": "balanceOf",
      "outputs": [
        {
          "internalType": "uint256",
          "name": "",
          "type": "uint256"
        }
      ],
      "stateMutability": "view",
      "type": "function"
    },
    {
      "inputs": [
        {
          "internalType": "uint256",
          "name": "amount",
          "type": "uint256"
        }
      ],
      "name": "burn",
      "outputs": [],
      "stateMutability": "nonpayable",
      "type": "function"
    },
    {
      "inputs": [
        {
          "internalType": "address",
          "name": "account",
          "type": "address"
        },
        {
          "internalType": "uint256",
          "name": "amount",
          "type": "uint256"
        }
      ],
      "name": "burnFrom",
      "outputs": [],
      "stateMutability": "nonpayable",
      "type": "function"
    },
    {
      "inputs": [],
      "name": "decimals",
      "outputs": [
        {
          "internalType": "uint8",
          "name": "",
          "type": "uint8"
        }
      ],
      "stateMutability": "view",
      "type": "function"
    },
    {
      "inputs": [
        {
          "internalType": "address",
          "name": "spender",
          "type": "address"
        },
        {
          "internalType": "uint256",
          "name": "subtractedValue",
          "type": "uint256"
        }
      ],
      "name": "decreaseAllowance",
      "outputs": [
        {
          "internalType": "bool",
          "name": "",
          "type": "bool"
        }
      ],
      "stateMutability": "nonpayable",
      "type": "function"
    },
    {
      "inputs": [
        {
          "internalType": "address",
          "name": "spender",
          "type": "address"
        },
        {
          "internalType": "uint256",
          "name": "addedValue",
          "type": "uint256"
        }
      ],
      "name": "increaseAllowance",
      "outputs": [
        {
          "internalType": "bool",
          "name": "",
          "type": "bool"
        }
      ],
      "stateMutability": "nonpayable",
      "type": "function"
    },
    {
      "inputs": [],
      "name": "name",
      "outputs": [
        {
          "internalType": "string",
          "name": "",
          "type": "string"
        }
      ],
      "stateMutability": "view",
      "type": "function"
    },
    {
      "inputs": [],
      "name": "symbol",
      "outputs": [
        {
          "internalType": "string",
          "name": "",
          "type": "string"
        }
      ],
      "stateMutability": "view",
      "type": "function"
    },
    {
      "inputs": [],
      "name": "totalSupply",
      "outputs": [
        {
          "internalType": "uint256",
          "name": "",
          "type": "uint256"
        }
      ],
      "stateMutability": "view",
      "type": "function"
    },
    {
      "inputs": [
        {
          "internalType": "address",
          "name": "to",
          "type": "address"
        },
        {
          "internalType": "uint256",
          "name": "amount",
          "type": "uint256"
        }
      ],
      "name": "transfer",
      "outputs": [
        {
          "internalType": "bool",
          "name": "",
          "type": "bool"
        }
      ],
      "stateMutability": "nonpayable",
      "type": "function"
    },
    {
      "inputs": [
        {
          "internalType": "address",
          "name": "from",
          "type": "address"
        },
        {
          "internalType": "address",
          "name": "to",
          "type": "address"
        },
        {
          "internalType": "uint256",
          "name": "amount",
          "type": "uint256"
        }
      ],
      "name": "transferFrom",
      "outputs": [
        {
          "internalType": "bool",
          "name": "",
          "type": "bool"
        }
      ],
      "stateMutability": "nonpayable",
      "type": "function"
    }
  ],
  "bytecode": "0x60806040523480156200001157600080fd5b5060405162001f6838038062001f68833981810160405281019062000037919062000430565b838381600390816200004a919062000721565b5080600490816200005c919062000721565b5050506200007181836200007b60201b60201c565b5050505062000923565b600073ffffffffffffffffffffffffffffffffffffffff168273ffffffffffffffffffffffffffffffffffffffff1603620000ed576040517f08c379a0000000000000000000000000000000000000000000000000000000008152600401620000e49062000869565b60405180910390fd5b6200010160008383620001f360201b60201c565b8060026000828254620001159190620008ba565b92505081905550806000808473ffffffffffffffffffffffffffffffffffffffff1673ffffffffffffffffffffffffffffffffffffffff16815260200190815260200160002060008282546200016c9190620008ba565b925050819055508173ffffffffffffffffffffffffffffffffffffffff16600073ffffffffffffffffffffffffffffffffffffffff167fddf252ad1be2c89b69c2b068fc378daa952ba7f163c4a11628f55a4df523b3ef83604051620001d3919062000906565b60405180910390a3620001ef60008383620001f860201b60201c565b5050565b505050565b505050565b6000604051905090565b600080fd5b600080fd5b600080fd5b600080fd5b6000601f19601f8301169050919050565b7f4e487b7100000000000000000000000000000000000000000000000000000000600052604160045260246000fd5b62000266826200021b565b810181811067ffffffffffffffff821117156200028857620002876200022c565b5b80604052505050565b60006200029d620001fd565b9050620002ab82826200025b565b919050565b600067ffffffffffffffff821115620002ce57620002cd6200022c565b5b620002d9826200021b565b9050602081019050919050565b60005b8381101562000306578082015181840152602081019050620002e9565b60008484015250505050565b6000620003296200032384620002b0565b62000291565b90508281526020810184848401111562000348576200034762000216565b5b62000355848285620002e6565b509392505050565b600082601f83011262000375576200037462000211565b5b81516200038784826020860162000312565b91505092915050565b6000819050919050565b620003a58162000390565b8114620003b157600080fd5b50565b600081519050620003c5816200039a565b92915050565b600073ffffffffffffffffffffffffffffffffffffffff82169050919050565b6000620003f882620003cb565b9050919050565b6200040a81620003eb565b81146200041657600080fd5b50565b6000815190506200042a81620003ff565b92915050565b600080600080608085870312156200044d576200044c62000207565b5b600085015167ffffffffffffffff8111156200046e576200046d6200020c565b5b6200047c878288016200035d565b945050602085015167ffffffffffffffff811115620004a0576200049f6200020c565b5b620004ae878288016200035d565b9350506040620004c187828801620003b4565b9250506060620004d48782880162000419565b91505092959194509250565b600081519050919050565b7f4e487b7100000000000000000000000000000000000000000000000000000000600052602260045260246000fd5b600060028204905060018216806200053357607f821691505b602082108103620005495762000548620004eb565b5b50919050565b60008190508160005260206000209050919050565b60006020601f8301049050919050565b600082821b905092915050565b600060088302620005b37fffffffffffffffffffffffffffffffffffffffffffffffffffffffffffffffff8262000574565b620005bf868362000574565b95508019841693508086168417925050509392505050565b6000819050919050565b600062000602620005fc620005f68462000390565b620005d7565b62000390565b9050919050565b6000819050919050565b6200061e83620005e1565b620006366200062d8262000609565b84845462000581565b825550505050565b600090565b6200064d6200063e565b6200065a81848462000613565b505050565b5b8181101562000682576200067660008262000643565b60018101905062000660565b5050565b601f821115620006d1576200069b816200054f565b620006a68462000564565b81016020851015620006b6578190505b620006ce620006c58562000564565b8301826200065f565b50505b505050565b600082821c905092915050565b6000620006f660001984600802620006d6565b1980831691505092915050565b6000620007118383620006e3565b9150826002028217905092915050565b6200072c82620004e0565b67ffffffffffffffff8111156200074857620007476200022c565b5b6200075482546200051a565b6200076182828562000686565b600060209050601f83116001811462000799576000841562000784578287015190505b62000790858262000703565b86555062000800565b601f198416620007a9866200054f565b60005b82811015620007d357848901518255600182019150602085019450602081019050620007ac565b86831015620007f35784890151620007ef601f891682620006e3565b8355505b6001600288020188555050505b505050505050565b600082825260208201905092915050565b7f45524332303a206d696e7420746f20746865207a65726f206164647265737300600082015250565b600062000851601f8362000808565b91506200085e8262000819565b602082019050919050565b60006020820190508181036000830152620008848162000842565b9050919050565b7f4e487b7100000000000000000000000000000000000000000000000000000000600052601160045260246000fd5b6000620008c78262000390565b9150620008d48362000390565b9250828201905080821115620008ef57620008ee6200088b565b5b92915050565b620009008162000390565b82525050565b60006020820190506200091d6000830184620008f5565b92915050565b61163580620009336000396000f3fe608060405234801561001057600080fd5b50600436106100df5760003560e01c806342966c681161008c57806395d89b411161006657806395d89b4114610236578063a457c2d714610254578063a9059cbb14610284578063dd62ed3e146102b4576100df565b806342966c68146101ce57806370a08231146101ea57806379cc67901461021a576100df565b806323b872dd116100bd57806323b872dd14610150578063313ce56714610180578063395093511461019e576100df565b806306fdde03146100e4578063095ea7b31461010257806318160ddd14610132575b600080fd5b6100ec6102e4565b6040516100f99190610d8d565b60405180910390f35b61011c60048036038101906101179190610e48565b610376565b6040516101299190610ea3565b60405180910390f35b61013a610399565b6040516101479190610ecd565b60405180910390f35b61016a60048036038101906101659190610ee8565b6103a3565b6040516101779190610ea3565b60405180910390f35b6101886103d2565b6040516101959190610f57565b60405180910390f35b6101b860048036038101906101b39190610e48565b6103db565b6040516101c59190610ea3565b60405180910390f35b6101e860048036038101906101e39190610f72565b610412565b005b61020460048036038101906101ff9190610f9f565b610426565b6040516102119190610ecd565b60405180910390f35b610234600480360381019061022f9190610e48565b61046e565b005b61023e61048e565b60405161024b9190610d8d565b60405180910390f35b61026e60048036038101906102699190610e48565b610520565b60405161027b9190610ea3565b60405180910390f35b61029e60048036038101906102999190610e48565b610597565b6040516102ab9190610ea3565b60405180910390f35b6102ce60048036038101906102c99190610fcc565b6105ba565b6040516102db9190610ecd565b60405180910390f35b6060600380546102f39061103b565b80601f016020809104026020016040519081016040528092919081815260200182805461031f9061103b565b801561036c5780601f106103415761010080835404028352916020019161036c565b820191906000526020600020905b81548152906001019060200180831161034f57829003601f168201915b5050505050905090565b600080610381610641565b905061038e818585610649565b600191505092915050565b6000600254905090565b6000806103ae610641565b90506103bb858285610812565b6103c685858561089e565b60019150509392505050565b60006012905090565b6000806103e6610641565b90506104078185856103f885896105ba565b610402919061109b565b610649565b600191505092915050565b61042361041d610641565b82610b1d565b50565b60008060008373ffffffffffffffffffffffffffffffffffffffff1673ffffffffffffffffffffffffffffffffffffffff168152602001908152602001600020549050919050565b6104808261047a610641565b83610812565b61048a8282610b1d565b5050565b60606004805461049d9061103b565b80601f01602080910402602001604051908101604052809291908181526020018280546104c99061103b565b80156105165780601f106104eb57610100808354040283529160200191610516565b820191906000526020600020905b8154815290600101906020018083116104f957829003601f168201915b5050505050905090565b60008061052b610641565b9050600061053982866105ba565b90508381101561057e576040517f08c379a000000000000000000000000000000000000000000000000000000000815260040161057590611141565b60405180910390fd5b61058b8286868403610649565b60019250505092915050565b6000806105a2610641565b90506105af81858561089e565b600191505092915050565b6000600160008473ffffffffffffffffffffffffffffffffffffffff1673ffffffffffffffffffffffffffffffffffffffff16815260200190815260200160002060008373ffffffffffffffffffffffffffffffffffffffff1673ffffffffffffffffffffffffffffffffffffffff16815260200190815260200160002054905092915050565b600033905090565b600073ffffffffffffffffffffffffffffffffffffffff168373ffffffffffffffffffffffffffffffffffffffff16036106b8576040517f08c379a00000000000000000000000000000000000000000000000000000000081526004016106af906111d3565b60405180910390fd5b600073ffffffffffffffffffffffffffffffffffffffff168273ffffffffffffffffffffffffffffffffffffffff1603610727576040517f08c379a000000000000000000000000000000000000000000000000000000000815260040161071e90611265565b60405180910390fd5b80600160008573ffffffffffffffffffffffffffffffffffffffff1673ffffffffffffffffffffffffffffffffffffffff16815260200190815260200160002060008473ffffffffffffffffffffffffffffffffffffffff1673ffffffffffffffffffffffffffffffffffffffff168152602001908152602001600020819055508173ffffffffffffffffffffffffffffffffffffffff168373ffffffffffffffffffffffffffffffffffffffff167f8c5be1e5ebec7d5bd14f71427d1e84f3dd0314c0f7b2291e5b200ac8c7c3b925836040516108059190610ecd565b60405180910390a3505050565b600061081e84846105ba565b90507fffffffffffffffffffffffffffffffffffffffffffffffffffffffffffffffff8114610898578181101561088a576040517f08c379a0000000000000000000000000000000000000000000000000000000008152600401610881906112d1565b60405180910390fd5b6108978484848403610649565b5b50505050565b600073ffffffffffffffffffffffffffffffffffffffff168373ffffffffffffffffffffffffffffffffffffffff160361090d576040517f08c379a000000000000000000000000000000000000000000000000000000000815260040161090490611363565b60405180910390fd5b600073ffffffffffffffffffffffffffffffffffffffff168273ffffffffffffffffffffffffffffffffffffffff160361097c576040517f08c379a0000000000000000000000000000000000000000000000000000000008152600401610973906113f5565b60405180910390fd5b610987838383610cf3565b60008060008573ffffffffffffffffffffffffffffffffffffffff1673ffffffffffffffffffffffffffffffffffffffff16815260200190815260200160002054905081811015610a0d576040517f08c379a0000000000000000000000000000000000000000000000000000000008152600401610a0490611487565b60405180910390fd5b8181036000808673ffffffffffffffffffffffffffffffffffffffff1673ffffffffffffffffffffffffffffffffffffffff16815260200190815260200160002081905550816000808573ffffffffffffffffffffffffffffffffffffffff1673ffffffffffffffffffffffffffffffffffffffff1681526020019081526020016000206000828254610aa0919061109b565b925050819055508273ffffffffffffffffffffffffffffffffffffffff168473ffffffffffffffffffffffffffffffffffffffff167fddf252ad1be2c89b69c2b068fc378daa952ba7f163c4a11628f55a4df523b3ef84604051610b049190610ecd565b60405180910390a3610b17848484610cf8565b50505050565b600073ffffffffffffffffffffffffffffffffffffffff168273ffffffffffffffffffffffffffffffffffffffff1603610b8c576040517f08c379a0000000000000000000000000000000000000000000000000000000008152600401610b8390611519565b60405180910390fd5b610b9882600083610cf3565b60008060008473ffffffffffffffffffffffffffffffffffffffff1673ffffffffffffffffffffffffffffffffffffffff16815260200190815260200160002054905081811015610c1e576040517f08c379a0000000000000000000000000000000000000000000000000000000008152600401610c15906115ab565b60405180910390fd5b8181036000808573ffffffffffffffffffffffffffffffffffffffff1673ffffffffffffffffffffffffffffffffffffffff168152602001908152602001600020819055508160026000828254610c7591906115cb565b92505081905550600073ffffffffffffffffffffffffffffffffffffffff168373ffffffffffffffffffffffffffffffffffffffff167fddf252ad1be2c89b69c2b068fc378daa952ba7f163c4a11628f55a4df523b3ef84604051610cda9190610ecd565b60405180910390a3610cee83600084610cf8565b505050565b505050565b505050565b600081519050919050565b600082825260208201905092915050565b60005b83811015610d37578082015181840152602081019050610d1c565b60008484015250505050565b6000601f19601f8301169050919050565b6000610d5f82610cfd565b610d698185610d08565b9350610d79818560208601610d19565b610d8281610d43565b840191505092915050565b60006020820190508181036000830152610da78184610d54565b905092915050565b600080fd5b600073ffffffffffffffffffffffffffffffffffffffff82169050919050565b6000610ddf82610db4565b9050919050565b610def81610dd4565b8114610dfa57600080fd5b50565b600081359050610e0c81610de6565b92915050565b6000819050919050565b610e2581610e12565b8114610e3057600080fd5b50565b600081359050610e4281610e1c565b92915050565b60008060408385031215610e5f57610e5e610daf565b5b6000610e6d85828601610dfd565b9250506020610e7e85828601610e33565b9150509250929050565b60008115159050919050565b610e9d81610e88565b82525050565b6000602082019050610eb86000830184610e94565b92915050565b610ec781610e12565b82525050565b6000602082019050610ee26000830184610ebe565b92915050565b600080600060608486031215610f0157610f00610daf565b5b6000610f0f86828701610dfd565b9350506020610f2086828701610dfd565b9250506040610f3186828701610e33565b9150509250925092565b600060ff82169050919050565b610f5181610f3b565b82525050565b6000602082019050610f6c6000830184610f48565b92915050565b600060208284031215610f8857610f87610daf565b5b6000610f9684828501610e33565b91505092915050565b600060208284031215610fb557610fb4610daf565b5b6000610fc384828501610dfd565b91505092915050565b60008060408385031215610fe357610fe2610daf565b5b6000610ff185828601610dfd565b925050602061100285828601610dfd565b9150509250929050565b7f4e487b7100000000000000000000000000000000000000000000000000000000600052602260045260246000fd5b6000600282049050600182168061105357607f821691505b6020821081036110665761106561100c565b5b50919050565b7f4e487b7100000000000000000000000000000000000000000000000000000000600052601160045260246000fd5b60006110a682610e12565b91506110b183610e12565b92508282019050808211156110c9576110c861106c565b5b92915050565b7f45524332303a2064656372656173656420616c6c6f77616e63652062656c6f7760008201527f207a65726f000000000000000000000000000000000000000000000000000000602082015250565b600061112b602583610d08565b9150611136826110cf565b604082019050919050565b6000602082019050818103600083015261115a8161111e565b9050919050565b7f45524332303a20617070726f76652066726f6d20746865207a65726f2061646460008201527f7265737300000000000000000000000000000000000000000000000000000000602082015250565b60006111bd602483610d08565b91506111c882611161565b604082019050919050565b600060208201905081810360008301526111ec816111b0565b9050919050565b7f45524332303a20617070726f766520746f20746865207a65726f20616464726560008201527f7373000000000000000000000000000000000000000000000000000000000000602082015250565b600061124f602283610d08565b915061125a826111f3565b604082019050919050565b6000602082019050818103600083015261127e81611242565b9050919050565b7f45524332303a20696e73756666696369656e7420616c6c6f77616e6365000000600082015250565b60006112bb601d83610d08565b91506112c682611285565b602082019050919050565b600060208201905081810360008301526112ea816112ae565b9050919050565b7f45524332303a207472616e736665722066726f6d20746865207a65726f20616460008201527f6472657373000000000000000000000000000000000000000000000000000000602082015250565b600061134d602583610d08565b9150611358826112f1565b604082019050919050565b6000602082019050818103600083015261137c81611340565b9050919050565b7f45524332303a207472616e7366657220746f20746865207a65726f206164647260008201527f6573730000000000000000000000000000000000000000000000000000000000602082015250565b60006113df602383610d08565b91506113ea82611383565b604082019050919050565b6000602082019050818103600083015261140e816113d2565b9050919050565b7f45524332303a207472616e7366657220616d6f756e742065786365656473206260008201527f616c616e63650000000000000000000000000000000000000000000000000000602082015250565b6000611471602683610d08565b915061147c82611415565b604082019050919050565b600060208201905081810360008301526114a081611464565b9050919050565b7f45524332303a206275726e2066726f6d20746865207a65726f2061646472657360008201527f7300000000000000000000000000000000000000000000000000000000000000602082015250565b6000611503602183610d08565b915061150e826114a7565b604082019050919050565b60006020820190508181036000830152611532816114f6565b9050919050565b7f45524332303a206275726e20616d6f756e7420657863656564732062616c616e60008201527f6365000000000000000000000000000000000000000000000000000000000000602082015250565b6000611595602283610d08565b91506115a082611539565b604082019050919050565b600060208201905081810360008301526115c481611588565b9050919050565b60006115d682610e12565b91506115e183610e12565b92508282039050818111156115f9576115f861106c565b5b9291505056fea26469706673582212205422e960d168650ca9b2f84b9bc6a81765acb1d28b0ffca487cadbd952f4121764736f6c63430008130033",
  "immutableReferences": {},
  "source": "// SPDX-License-Identifier: MIT\n// OpenZeppelin Contracts (last updated v4.5.0) (token/ERC20/presets/ERC20PresetFixedSupply.sol)\npragma solidity ^0.8.0;\n\nimport \"../extensions/ERC20Burnable.sol\";\n\n/**\n * @dev {ERC20} token, including:\n *\n *  - Preminted initial supply\n *  - Ability for holders to burn (destroy) their tokens\n *  - No access control mechanism (for minting/pausing) and hence no governance\n *\n * This contract uses {ERC20Burnable} to include burn capabilities - head to\n * its documentation for details.\n *\n * _Available since v3.4._\n *\n * _Deprecated in favor of https://wizard.openzeppelin.com/[Contracts Wizard]._\n */\ncontract ERC20PresetFixedSupply is ERC20Burnable {\n    /**\n     * @dev Mints `initialSupply` amount of token and transfers them to `owner`.\n     *\n     * See {ERC20-constructor}.\n     */\n    constructor(\n        string memory name,\n        string memory symbol,\n        uint256 initialSupply,\n        address owner\n    ) ERC20(name, symbol) {\n        _mint(owner, initialSupply);\n    }\n}\n",
  "sourcePath": "/Users/marciovieira/Desktop/__/CA_Blockchain/DCU_MKT_PLC/contracts/@openzeppelin/contracts/token/ERC20/presets/ERC20PresetFixedSupply.sol",
  "compiler": {
    "name": "solc",
    "version": "0.8.19+commit.7dd6d404.Emscripten.clang"
  },
  "schemaVersion": "3.4.16",
  "updatedAt": "2024-03-09T18:08:13.799Z",
  "devdoc": {
    "details": "{ERC20} token, including:  - Preminted initial supply  - Ability for holders to burn (destroy) their tokens  - No access control mechanism (for minting/pausing) and hence no governance This contract uses {ERC20Burnable} to include burn capabilities - head to its documentation for details. _Available since v3.4._ _Deprecated in favor of https://wizard.openzeppelin.com/[Contracts Wizard]._",
    "events": {
      "Approval(address,address,uint256)": {
        "details": "Emitted when the allowance of a `spender` for an `owner` is set by a call to {approve}. `value` is the new allowance."
      },
      "Transfer(address,address,uint256)": {
        "details": "Emitted when `value` tokens are moved from one account (`from`) to another (`to`). Note that `value` may be zero."
      }
    },
    "kind": "dev",
    "methods": {
      "allowance(address,address)": {
        "details": "See {IERC20-allowance}."
      },
      "approve(address,uint256)": {
        "details": "See {IERC20-approve}. NOTE: If `amount` is the maximum `uint256`, the allowance is not updated on `transferFrom`. This is semantically equivalent to an infinite approval. Requirements: - `spender` cannot be the zero address."
      },
      "balanceOf(address)": {
        "details": "See {IERC20-balanceOf}."
      },
      "burn(uint256)": {
        "details": "Destroys `amount` tokens from the caller. See {ERC20-_burn}."
      },
      "burnFrom(address,uint256)": {
        "details": "Destroys `amount` tokens from `account`, deducting from the caller's allowance. See {ERC20-_burn} and {ERC20-allowance}. Requirements: - the caller must have allowance for ``accounts``'s tokens of at least `amount`."
      },
      "constructor": {
        "details": "Mints `initialSupply` amount of token and transfers them to `owner`. See {ERC20-constructor}."
      },
      "decimals()": {
        "details": "Returns the number of decimals used to get its user representation. For example, if `decimals` equals `2`, a balance of `505` tokens should be displayed to a user as `5.05` (`505 / 10 ** 2`). Tokens usually opt for a value of 18, imitating the relationship between Ether and Wei. This is the value {ERC20} uses, unless this function is overridden; NOTE: This information is only used for _display_ purposes: it in no way affects any of the arithmetic of the contract, including {IERC20-balanceOf} and {IERC20-transfer}."
      },
      "decreaseAllowance(address,uint256)": {
        "details": "Atomically decreases the allowance granted to `spender` by the caller. This is an alternative to {approve} that can be used as a mitigation for problems described in {IERC20-approve}. Emits an {Approval} event indicating the updated allowance. Requirements: - `spender` cannot be the zero address. - `spender` must have allowance for the caller of at least `subtractedValue`."
      },
      "increaseAllowance(address,uint256)": {
        "details": "Atomically increases the allowance granted to `spender` by the caller. This is an alternative to {approve} that can be used as a mitigation for problems described in {IERC20-approve}. Emits an {Approval} event indicating the updated allowance. Requirements: - `spender` cannot be the zero address."
      },
      "name()": {
        "details": "Returns the name of the token."
      },
      "symbol()": {
        "details": "Returns the symbol of the token, usually a shorter version of the name."
      },
      "totalSupply()": {
        "details": "See {IERC20-totalSupply}."
      },
      "transfer(address,uint256)": {
        "details": "See {IERC20-transfer}. Requirements: - `to` cannot be the zero address. - the caller must have a balance of at least `amount`."
      },
      "transferFrom(address,address,uint256)": {
        "details": "See {IERC20-transferFrom}. Emits an {Approval} event indicating the updated allowance. This is not required by the EIP. See the note at the beginning of {ERC20}. NOTE: Does not update the allowance if the current allowance is the maximum `uint256`. Requirements: - `from` and `to` cannot be the zero address. - `from` must have a balance of at least `amount`. - the caller must have allowance for ``from``'s tokens of at least `amount`."
      }
    },
    "version": 1
  },
  "userdoc": {
    "kind": "user",
    "methods": {},
    "version": 1
  }
}