{
  "contractName": "Marketplace",
  "abi": [
    {
      "inputs": [],
      "stateMutability": "nonpayable",
      "type": "constructor"
    },
    {
      "anonymous": false,
      "inputs": [
        {
          "indexed": false,
          "internalType": "address",
          "name": "nftContract",
          "type": "address"
        },
        {
          "indexed": false,
          "internalType": "uint256",
          "name": "tokenId",
          "type": "uint256"
        },
        {
          "indexed": false,
          "internalType": "address",
          "name": "seller",
          "type": "address"
        },
        {
          "indexed": false,
          "internalType": "address",
          "name": "owner",
          "type": "address"
        },
        {
          "indexed": false,
          "internalType": "uint256",
          "name": "price",
          "type": "uint256"
        },
        {
          "indexed": false,
          "internalType": "uint256",
          "name": "listingTime",
          "type": "uint256"
        }
      ],
      "name": "NFTListed",
      "type": "event"
    },
    {
      "anonymous": false,
      "inputs": [
        {
          "indexed": false,
          "internalType": "address",
          "name": "nftContract",
          "type": "address"
        },
        {
          "indexed": false,
          "internalType": "uint256",
          "name": "tokenId",
          "type": "uint256"
        },
        {
          "indexed": false,
          "internalType": "address",
          "name": "seller",
          "type": "address"
        },
        {
          "indexed": false,
          "internalType": "address",
          "name": "owner",
          "type": "address"
        },
        {
          "indexed": false,
          "internalType": "uint256",
          "name": "price",
          "type": "uint256"
        }
      ],
      "name": "NFTSold",
      "type": "event"
    },
    {
      "inputs": [],
      "name": "LISTING_FEE",
      "outputs": [
        {
          "internalType": "uint256",
          "name": "",
          "type": "uint256"
        }
      ],
      "stateMutability": "view",
      "type": "function",
      "constant": true
    },
    {
      "inputs": [
        {
          "internalType": "address",
          "name": "_nftContract",
          "type": "address"
        },
        {
          "internalType": "uint256",
          "name": "_tokenId",
          "type": "uint256"
        },
        {
          "internalType": "string",
          "name": "_name",
          "type": "string"
        },
        {
          "internalType": "uint256",
          "name": "_price",
          "type": "uint256"
        },
        {
          "internalType": "string",
          "name": "_tokenURI",
          "type": "string"
        }
      ],
      "name": "listNFT",
      "outputs": [],
      "stateMutability": "payable",
      "type": "function",
      "payable": true
    },
    {
      "inputs": [
        {
          "internalType": "address",
          "name": "_nftContract",
          "type": "address"
        },
        {
          "internalType": "uint256",
          "name": "_tokenId",
          "type": "uint256"
        }
      ],
      "name": "buyNFT",
      "outputs": [],
      "stateMutability": "payable",
      "type": "function",
      "payable": true
    },
    {
      "inputs": [
        {
          "internalType": "address",
          "name": "_nftContract",
          "type": "address"
        },
        {
          "internalType": "uint256",
          "name": "_tokenId",
          "type": "uint256"
        }
      ],
      "name": "resellNFT",
      "outputs": [],
      "stateMutability": "payable",
      "type": "function",
      "payable": true
    },
    {
      "inputs": [],
      "name": "getListingFee",
      "outputs": [
        {
          "internalType": "uint256",
          "name": "",
          "type": "uint256"
        }
      ],
      "stateMutability": "view",
      "type": "function",
      "constant": true
    },
    {
      "inputs": [
        {
          "internalType": "uint256",
          "name": "_tokenId",
          "type": "uint256"
        }
      ],
      "name": "getTokenForId",
      "outputs": [
        {
          "components": [
            {
              "internalType": "address",
              "name": "nftContract",
              "type": "address"
            },
            {
              "internalType": "uint256",
              "name": "tokenId",
              "type": "uint256"
            },
            {
              "internalType": "address payable",
              "name": "seller",
              "type": "address"
            },
            {
              "internalType": "address payable",
              "name": "owner",
              "type": "address"
            },
            {
              "internalType": "string",
              "name": "tokenURI",
              "type": "string"
            },
            {
              "internalType": "string",
              "name": "name",
              "type": "string"
            },
            {
              "internalType": "uint256",
              "name": "price",
              "type": "uint256"
            },
            {
              "internalType": "bool",
              "name": "isListed",
              "type": "bool"
            },
            {
              "internalType": "uint256",
              "name": "listingTime",
              "type": "uint256"
            }
          ],
          "internalType": "struct Marketplace.Token",
          "name": "",
          "type": "tuple"
        }
      ],
      "stateMutability": "view",
      "type": "function",
      "constant": true
    },
    {
      "inputs": [],
      "name": "getMarketPlaceBalance",
      "outputs": [
        {
          "internalType": "uint256",
          "name": "",
          "type": "uint256"
        }
      ],
      "stateMutability": "view",
      "type": "function",
      "constant": true
    },
    {
      "inputs": [],
      "name": "getItemsCount",
      "outputs": [
        {
          "internalType": "uint256",
          "name": "",
          "type": "uint256"
        }
      ],
      "stateMutability": "view",
      "type": "function",
      "constant": true
    },
    {
      "inputs": [],
      "name": "getItemsSold",
      "outputs": [
        {
          "internalType": "uint256",
          "name": "",
          "type": "uint256"
        }
      ],
      "stateMutability": "view",
      "type": "function",
      "constant": true
    }
  ],
  "bytecode": "0x6080604052670de0b6b3a764000060035534801561001c57600080fd5b50600160008190555033600460006101000a81548173ffffffffffffffffffffffffffffffffffffffff021916908373ffffffffffffffffffffffffffffffffffffffff160217905550611bdb806100756000396000f3fe6080604052600436106100965760003560e01c80639e1001b011610069578063b4c49d091161004e578063b4c49d0914610182578063b8fe6abe146101ad578063c4b15141146101d857610096565b80639e1001b01461014a578063a82ba76f1461016657610096565b80632444a8a61461009b5780632b86ae38146100d8578063512dd02014610103578063789407bd1461012e575b600080fd5b3480156100a757600080fd5b506100c260048036038101906100bd9190610ff6565b610203565b6040516100cf919061120b565b60405180910390f35b3480156100e457600080fd5b506100ed610490565b6040516100fa919061123c565b60405180910390f35b34801561010f57600080fd5b50610118610496565b604051610125919061123c565b60405180910390f35b610148600480360381019061014391906113b8565b6104a7565b005b610164600480360381019061015f919061146b565b610821565b005b610180600480360381019061017b919061146b565b610ab4565b005b34801561018e57600080fd5b50610197610e79565b6040516101a4919061123c565b60405180910390f35b3480156101b957600080fd5b506101c2610e81565b6040516101cf919061123c565b60405180910390f35b3480156101e457600080fd5b506101ed610e8b565b6040516101fa919061123c565b60405180910390f35b61020b610f1c565b60056000838152602001908152602001600020604051806101200160405290816000820160009054906101000a900473ffffffffffffffffffffffffffffffffffffffff1673ffffffffffffffffffffffffffffffffffffffff1673ffffffffffffffffffffffffffffffffffffffff168152602001600182015481526020016002820160009054906101000a900473ffffffffffffffffffffffffffffffffffffffff1673ffffffffffffffffffffffffffffffffffffffff1673ffffffffffffffffffffffffffffffffffffffff1681526020016003820160009054906101000a900473ffffffffffffffffffffffffffffffffffffffff1673ffffffffffffffffffffffffffffffffffffffff1673ffffffffffffffffffffffffffffffffffffffff168152602001600482018054610346906114da565b80601f0160208091040260200160405190810160405280929190818152602001828054610372906114da565b80156103bf5780601f10610394576101008083540402835291602001916103bf565b820191906000526020600020905b8154815290600101906020018083116103a257829003601f168201915b505050505081526020016005820180546103d8906114da565b80601f0160208091040260200160405190810160405280929190818152602001828054610404906114da565b80156104515780601f1061042657610100808354040283529160200191610451565b820191906000526020600020905b81548152906001019060200180831161043457829003601f168201915b50505050508152602001600682015481526020016007820160009054906101000a900460ff161515151581526020016008820154815250509050919050565b60035481565b60006104a26002610e9c565b905090565b6002600054036104ec576040517f08c379a00000000000000000000000000000000000000000000000000000000081526004016104e390611568565b60405180910390fd5b600260008190555060003411610537576040517f08c379a000000000000000000000000000000000000000000000000000000000815260040161052e906115d4565b60405180910390fd5b600354341461057b576040517f08c379a000000000000000000000000000000000000000000000000000000000815260040161057290611640565b60405180910390fd5b8473ffffffffffffffffffffffffffffffffffffffff166323b872dd3330876040518463ffffffff1660e01b81526004016105b89392919061166f565b600060405180830381600087803b1580156105d257600080fd5b505af11580156105e6573d6000803e3d6000fd5b505050506105f46002610eaa565b6040518061012001604052808673ffffffffffffffffffffffffffffffffffffffff1681526020018581526020013373ffffffffffffffffffffffffffffffffffffffff1681526020013073ffffffffffffffffffffffffffffffffffffffff168152602001828152602001848152602001838152602001600115158152602001428152506005600086815260200190815260200160002060008201518160000160006101000a81548173ffffffffffffffffffffffffffffffffffffffff021916908373ffffffffffffffffffffffffffffffffffffffff1602179055506020820151816001015560408201518160020160006101000a81548173ffffffffffffffffffffffffffffffffffffffff021916908373ffffffffffffffffffffffffffffffffffffffff16021790555060608201518160030160006101000a81548173ffffffffffffffffffffffffffffffffffffffff021916908373ffffffffffffffffffffffffffffffffffffffff16021790555060808201518160040190816107809190611852565b5060a08201518160050190816107969190611852565b5060c0820151816006015560e08201518160070160006101000a81548160ff02191690831515021790555061010082015181600801559050507fc832d0dcd7b856cbe96d21951bfd27a151474492114ad271531ad34f7cfd6453858533306003544260405161080a96959493929190611924565b60405180910390a160016000819055505050505050565b600260005403610866576040517f08c379a000000000000000000000000000000000000000000000000000000000815260040161085d90611568565b60405180910390fd5b600260008190555060008273ffffffffffffffffffffffffffffffffffffffff16636352211e836040518263ffffffff1660e01b81526004016108a9919061123c565b602060405180830381865afa1580156108c6573d6000803e3d6000fd5b505050506040513d601f19601f820116820180604052508101906108ea919061199a565b905060006005600084815260200190815260200160002090506003543414610947576040517f08c379a000000000000000000000000000000000000000000000000000000000815260040161093e90611640565b60405180910390fd5b8373ffffffffffffffffffffffffffffffffffffffff166323b872dd8330866040518463ffffffff1660e01b81526004016109849392919061166f565b600060405180830381600087803b15801561099e57600080fd5b505af11580156109b2573d6000803e3d6000fd5b50505050338160020160006101000a81548173ffffffffffffffffffffffffffffffffffffffff021916908373ffffffffffffffffffffffffffffffffffffffff160217905550308160030160006101000a81548173ffffffffffffffffffffffffffffffffffffffff021916908373ffffffffffffffffffffffffffffffffffffffff16021790555060018160070160006101000a81548160ff021916908315150217905550610a636001610ec0565b7fc832d0dcd7b856cbe96d21951bfd27a151474492114ad271531ad34f7cfd64538484333060035442604051610a9e96959493929190611924565b60405180910390a1505060016000819055505050565b600260005403610af9576040517f08c379a0000000000000000000000000000000000000000000000000000000008152600401610af090611568565b60405180910390fd5b600260008190555060008273ffffffffffffffffffffffffffffffffffffffff16636352211e836040518263ffffffff1660e01b8152600401610b3c919061123c565b602060405180830381865afa158015610b59573d6000803e3d6000fd5b505050506040513d601f19601f82011682018060405250810190610b7d919061199a565b905060006005600084815260200190815260200160002090508060060154341015610bdd576040517f08c379a0000000000000000000000000000000000000000000000000000000008152600401610bd490611a39565b60405180910390fd5b60003390508160020160009054906101000a900473ffffffffffffffffffffffffffffffffffffffff1673ffffffffffffffffffffffffffffffffffffffff166108fc349081150290604051600060405180830381858888f19350505050158015610c4c573d6000803e3d6000fd5b508473ffffffffffffffffffffffffffffffffffffffff166323b872dd843385600101546040518463ffffffff1660e01b8152600401610c8e9392919061166f565b600060405180830381600087803b158015610ca857600080fd5b505af1158015610cbc573d6000803e3d6000fd5b505050508473ffffffffffffffffffffffffffffffffffffffff1663a22cb4653360016040518363ffffffff1660e01b8152600401610cfc929190611a68565b600060405180830381600087803b158015610d1657600080fd5b505af1158015610d2a573d6000803e3d6000fd5b50505050600460009054906101000a900473ffffffffffffffffffffffffffffffffffffffff1673ffffffffffffffffffffffffffffffffffffffff166108fc6003549081150290604051600060405180830381858888f19350505050158015610d98573d6000803e3d6000fd5b50808260030160006101000a81548173ffffffffffffffffffffffffffffffffffffffff021916908373ffffffffffffffffffffffffffffffffffffffff16021790555060008260070160006101000a81548160ff021916908315150217905550610e036001610eaa565b7f16f1dbd97e6bf646d429ed186cce832f1f7fd9907814293b83181e9970ab7bd28583600101548460020160009054906101000a900473ffffffffffffffffffffffffffffffffffffffff168434604051610e62959493929190611ae6565b60405180910390a150505060016000819055505050565b600047905090565b6000600354905090565b6000610e976001610e9c565b905090565b600081600001549050919050565b6001816000016000828254019250508190555050565b60008160000154905060008111610f0c576040517f08c379a0000000000000000000000000000000000000000000000000000000008152600401610f0390611b85565b60405180910390fd5b6001810382600001819055505050565b604051806101200160405280600073ffffffffffffffffffffffffffffffffffffffff16815260200160008152602001600073ffffffffffffffffffffffffffffffffffffffff168152602001600073ffffffffffffffffffffffffffffffffffffffff168152602001606081526020016060815260200160008152602001600015158152602001600081525090565b6000604051905090565b600080fd5b600080fd5b6000819050919050565b610fd381610fc0565b8114610fde57600080fd5b50565b600081359050610ff081610fca565b92915050565b60006020828403121561100c5761100b610fb6565b5b600061101a84828501610fe1565b91505092915050565b600073ffffffffffffffffffffffffffffffffffffffff82169050919050565b600061104e82611023565b9050919050565b61105e81611043565b82525050565b61106d81610fc0565b82525050565b600061107e82611023565b9050919050565b61108e81611073565b82525050565b600081519050919050565b600082825260208201905092915050565b60005b838110156110ce5780820151818401526020810190506110b3565b60008484015250505050565b6000601f19601f8301169050919050565b60006110f682611094565b611100818561109f565b93506111108185602086016110b0565b611119816110da565b840191505092915050565b60008115159050919050565b61113981611124565b82525050565b6000610120830160008301516111586000860182611055565b50602083015161116b6020860182611064565b50604083015161117e6040860182611085565b5060608301516111916060860182611085565b50608083015184820360808601526111a982826110eb565b91505060a083015184820360a08601526111c382826110eb565b91505060c08301516111d860c0860182611064565b5060e08301516111eb60e0860182611130565b50610100830151611200610100860182611064565b508091505092915050565b60006020820190508181036000830152611225818461113f565b905092915050565b61123681610fc0565b82525050565b6000602082019050611251600083018461122d565b92915050565b61126081611043565b811461126b57600080fd5b50565b60008135905061127d81611257565b92915050565b600080fd5b600080fd5b7f4e487b7100000000000000000000000000000000000000000000000000000000600052604160045260246000fd5b6112c5826110da565b810181811067ffffffffffffffff821117156112e4576112e361128d565b5b80604052505050565b60006112f7610fac565b905061130382826112bc565b919050565b600067ffffffffffffffff8211156113235761132261128d565b5b61132c826110da565b9050602081019050919050565b82818337600083830152505050565b600061135b61135684611308565b6112ed565b90508281526020810184848401111561137757611376611288565b5b611382848285611339565b509392505050565b600082601f83011261139f5761139e611283565b5b81356113af848260208601611348565b91505092915050565b600080600080600060a086880312156113d4576113d3610fb6565b5b60006113e28882890161126e565b95505060206113f388828901610fe1565b945050604086013567ffffffffffffffff81111561141457611413610fbb565b5b6114208882890161138a565b935050606061143188828901610fe1565b925050608086013567ffffffffffffffff81111561145257611451610fbb565b5b61145e8882890161138a565b9150509295509295909350565b6000806040838503121561148257611481610fb6565b5b60006114908582860161126e565b92505060206114a185828601610fe1565b9150509250929050565b7f4e487b7100000000000000000000000000000000000000000000000000000000600052602260045260246000fd5b600060028204905060018216806114f257607f821691505b602082108103611505576115046114ab565b5b50919050565b600082825260208201905092915050565b7f5265656e7472616e637947756172643a207265656e7472616e742063616c6c00600082015250565b6000611552601f8361150b565b915061155d8261151c565b602082019050919050565b6000602082019050818103600083015261158181611545565b9050919050565b7f5072696365206d757374206265206174206c6561737420312077656900000000600082015250565b60006115be601c8361150b565b91506115c982611588565b602082019050919050565b600060208201905081810360008301526115ed816115b1565b9050919050565b7f4e6f7420656e6f75676820657468657220666f72206c697374696e6720666565600082015250565b600061162a60208361150b565b9150611635826115f4565b602082019050919050565b600060208201905081810360008301526116598161161d565b9050919050565b61166981611043565b82525050565b60006060820190506116846000830186611660565b6116916020830185611660565b61169e604083018461122d565b949350505050565b60008190508160005260206000209050919050565b60006020601f8301049050919050565b600082821b905092915050565b6000600883026117087fffffffffffffffffffffffffffffffffffffffffffffffffffffffffffffffff826116cb565b61171286836116cb565b95508019841693508086168417925050509392505050565b6000819050919050565b600061174f61174a61174584610fc0565b61172a565b610fc0565b9050919050565b6000819050919050565b61176983611734565b61177d61177582611756565b8484546116d8565b825550505050565b600090565b611792611785565b61179d818484611760565b505050565b5b818110156117c1576117b660008261178a565b6001810190506117a3565b5050565b601f821115611806576117d7816116a6565b6117e0846116bb565b810160208510156117ef578190505b6118036117fb856116bb565b8301826117a2565b50505b505050565b600082821c905092915050565b60006118296000198460080261180b565b1980831691505092915050565b60006118428383611818565b9150826002028217905092915050565b61185b82611094565b67ffffffffffffffff8111156118745761187361128d565b5b61187e82546114da565b6118898282856117c5565b600060209050601f8311600181146118bc57600084156118aa578287015190505b6118b48582611836565b86555061191c565b601f1984166118ca866116a6565b60005b828110156118f2578489015182556001820191506020850194506020810190506118cd565b8683101561190f578489015161190b601f891682611818565b8355505b6001600288020188555050505b505050505050565b600060c0820190506119396000830189611660565b611946602083018861122d565b6119536040830187611660565b6119606060830186611660565b61196d608083018561122d565b61197a60a083018461122d565b979650505050505050565b60008151905061199481611257565b92915050565b6000602082840312156119b0576119af610fb6565b5b60006119be84828501611985565b91505092915050565b7f4e6f7420656e6f75676820657468657220746f20636f7665722061736b696e6760008201527f2070726963650000000000000000000000000000000000000000000000000000602082015250565b6000611a2360268361150b565b9150611a2e826119c7565b604082019050919050565b60006020820190508181036000830152611a5281611a16565b9050919050565b611a6281611124565b82525050565b6000604082019050611a7d6000830185611660565b611a8a6020830184611a59565b9392505050565b6000611aac611aa7611aa284611023565b61172a565b611023565b9050919050565b6000611abe82611a91565b9050919050565b6000611ad082611ab3565b9050919050565b611ae081611ac5565b82525050565b600060a082019050611afb6000830188611660565b611b08602083018761122d565b611b156040830186611ad7565b611b226060830185611ad7565b611b2f608083018461122d565b9695505050505050565b7f436f756e7465723a2064656372656d656e74206f766572666c6f770000000000600082015250565b6000611b6f601b8361150b565b9150611b7a82611b39565b602082019050919050565b60006020820190508181036000830152611b9e81611b62565b905091905056fea26469706673582212206d387d9fba91be472a60c2bd70686bb8b701398109e4e88b1ca465ca48e0765164736f6c63430008130033",
  "immutableReferences": {},
  "source": "// SPDX-License-Identifier: MIT\npragma solidity ^0.8.19;\n\nimport \"./@openzeppelin/contracts/utils/Counters.sol\";\nimport \"./@openzeppelin/contracts/token/ERC721/ERC721.sol\";\nimport \"./@openzeppelin/contracts/security/ReentrancyGuard.sol\";\n\ncontract Marketplace is ReentrancyGuard {\n    // Utilize OpenZeppelin's Counters library for secure counter management\n    using Counters for Counters.Counter;\n    Counters.Counter private _nftsSold; // Counter for the number of NFTs sold\n    Counters.Counter private _nftCount; // Counter for the number of NFTs listed\n    uint256 public LISTING_FEE = 1.0 ether; // Listing fee for each NFT\n    address payable private _marketOwner; // Owner of the marketplace, receives listing fees\n    // Mapping from NFT token ID to its details, storing all listed NFTs\n    mapping(uint256 => Token) private _idToToken;\n\n    // Struct to store details about each NFT\n    struct Token {\n        address nftContract; // Contract address of the NFT\n        uint256 tokenId; // Unique token ID of the NFT\n        address payable seller; // Seller's address\n        address payable owner; // Current owner's address\n        string tokenURI; // URI for token metadata\n        string name; // Name of the token\n        uint256 price; // Price of the NFT in Wei\n        bool isListed; // Flag to indicate if the NFT is listed for sale\n        uint256 listingTime; // Add listing time\n\n    }\n\n    // Event emitted when an NFT is listed on the marketplace\n    event NFTListed(\n        address nftContract,\n        uint256 tokenId,\n        address seller,\n        address owner,\n        uint256 price,\n        uint256 listingTime \n    );\n    // Event emitted when an NFT is sold\n    event NFTSold(\n        address nftContract,\n        uint256 tokenId,\n        address seller,\n        address owner,\n        uint256 price\n    );\n\n    // Constructor sets the deployer as the market owner\n    constructor() {\n        _marketOwner = payable(msg.sender);\n    }\n\n    /**\n     * @dev Lists an NFT on the marketplace by transferring it from the seller to the contract.\n     * Requires the transaction value to be equal to the listing fee to ensure commitment from the seller.\n     * Upon successful listing, increments the count of NFTs listed and emits an NFTListed event.\n     *\n     * @param _nftContract The address of the ERC721 NFT contract.\n     * @param _tokenId The unique identifier for the NFT.\n     * @param _name The name of the NFT.\n     * @param _tokenURI The metadata URI for the NFT.\n     *\n     * Requirements:\n     * - The transaction value must be greater than 0, ensuring a non-zero price for listing.\n     * - The transaction value must equal the predefined listing fee.\n     * - The caller must own the NFT or be an approved operator for the `_tokenId` in the NFT contract.\n     */\n    function listNFT(\n        address _nftContract,\n        uint256 _tokenId,\n        string memory _name,\n        uint256 _price,\n        string memory _tokenURI\n    ) public payable nonReentrant {\n        require(msg.value > 0, \"Price must be at least 1 wei\");\n        require(msg.value == LISTING_FEE, \"Not enough ether for listing fee\");\n\n        IERC721(_nftContract).transferFrom(msg.sender, address(this), _tokenId);\n\n        _nftCount.increment();\n\n        _idToToken[_tokenId] = Token({\n            nftContract: _nftContract,\n            tokenId: _tokenId,\n            seller: payable(msg.sender),\n            owner: payable(address(this)),\n            tokenURI: _tokenURI,\n            name: _name,\n            price: _price,\n            isListed: true,\n            listingTime: block.timestamp\n        });\n\n        emit NFTListed(\n            _nftContract,\n            _tokenId,\n            msg.sender,\n            address(this),\n            LISTING_FEE,\n             block.timestamp \n        );\n    }\n\n    /**\n     * @dev Allows users to buy an NFT listed on the marketplace. The buyer must send enough ether to cover\n     * the NFT's listed price. The function transfers the NFT from the current owner to the buyer and updates\n     * the marketplace state accordingly.\n     *\n     * @param _nftContract The address of the ERC721 NFT contract.\n     * @param _tokenId The unique identifier for the NFT being purchased.\n     *\n     * Requirements:\n     * - The sent value (`msg.value`) must at least equal the NFT's listed price.\n     * - The NFT must be listed for sale in the marketplace.\n     *\n     * The function transfers the sale amount to the seller, transfers the NFT to the buyer, updates the NFT's\n     * ownership status in the marketplace, and increments the count of NFTs sold. It also emits an `NFTSold`\n     * event upon successful transaction.\n     */\n    function buyNFT(address _nftContract, uint256 _tokenId)\n        public\n        payable\n        nonReentrant\n    {\n        address owner = IERC721(_nftContract).ownerOf(_tokenId);\n        Token storage nft = _idToToken[_tokenId];\n        require(msg.value >= nft.price,\"Not enough ether to cover asking price\");\n\n        address payable buyer = payable(msg.sender);\n        payable(nft.seller).transfer(msg.value);\n\n        IERC721(_nftContract).transferFrom(owner, msg.sender, nft.tokenId);\n        IERC721(_nftContract).setApprovalForAll(msg.sender, true);\n\n        _marketOwner.transfer(LISTING_FEE);\n        nft.owner = buyer;\n        nft.isListed = false;\n\n        _nftsSold.increment();\n        emit NFTSold(_nftContract, nft.tokenId, nft.seller, buyer, msg.value);\n    }\n\n    /**\n     * @dev Allows an NFT owner to relist an NFT they've purchased on the marketplace.\n     * Requires the relisting fee to be sent with the transaction.\n     *\n     * @param _nftContract Address of the NFT contract.\n     * @param _tokenId ID of the NFT being relisted.\n     *\n     * The function transfers the NFT from the current owner back to the marketplace contract,\n     * marks it as listed, and updates the seller to the current caller.\n     */\n    function resellNFT(address _nftContract, uint256 _tokenId)\n        public\n        payable\n        nonReentrant\n    {\n        address owner = IERC721(_nftContract).ownerOf(_tokenId);\n        Token storage nft = _idToToken[_tokenId];\n\n        require(msg.value == LISTING_FEE, \"Not enough ether for listing fee\");\n\n        // UPDATE\n        IERC721(_nftContract).transferFrom(owner, address(this), _tokenId);\n\n        nft.seller = payable(msg.sender);\n        nft.owner = payable(address(this));\n        nft.isListed = true;\n\n        _nftsSold.decrement();\n        emit NFTListed(\n            _nftContract,\n            _tokenId,\n            msg.sender,\n            address(this),\n            LISTING_FEE,\n            block.timestamp\n        );\n    }\n\n    /**\n     * @dev Returns the current listing fee for the marketplace.\n     */\n    function getListingFee() public view returns (uint256) {\n        return LISTING_FEE;\n    }\n\n    /**\n     * @dev Retrieves details for a listed NFT by its ID.\n     *\n     * @param _tokenId ID of the NFT to retrieve details for.\n     * @return Token struct with NFT details.\n     */\n    function getTokenForId(uint256 _tokenId)\n        public\n        view\n        returns (Token memory)\n    {\n        return _idToToken[_tokenId];\n    }\n\n    /**\n     * @dev Returns the current balance of Ether held by the marketplace contract.\n     */\n    function getMarketPlaceBalance() public view returns (uint256) {\n        return address(this).balance;\n    }\n\n    /**\n     * @dev Returns the total count of NFTs listed on the marketplace.\n     */\n    function getItemsCount() public view returns (uint256) {\n        return _nftCount.current();\n    }\n\n    /**\n     * @dev Returns the total number of NFTs sold through the marketplace.\n     */\n    function getItemsSold() public view returns (uint256) {\n        return _nftsSold.current();\n    }\n}\n",
  "sourcePath": "/Users/marciovieira/Desktop/__/CA_Blockchain/DCU_MKT_PLC/contracts/Marketplace.sol",
  "compiler": {
    "name": "solc",
    "version": "0.8.19+commit.7dd6d404.Emscripten.clang"
  },
  "schemaVersion": "3.4.16",
  "updatedAt": "2024-03-10T11:33:40.173Z",
  "networkType": "ethereum",
  "devdoc": {
    "kind": "dev",
    "methods": {
      "buyNFT(address,uint256)": {
        "details": "Allows users to buy an NFT listed on the marketplace. The buyer must send enough ether to cover the NFT's listed price. The function transfers the NFT from the current owner to the buyer and updates the marketplace state accordingly.",
        "params": {
          "_nftContract": "The address of the ERC721 NFT contract.",
          "_tokenId": "The unique identifier for the NFT being purchased. Requirements: - The sent value (`msg.value`) must at least equal the NFT's listed price. - The NFT must be listed for sale in the marketplace. The function transfers the sale amount to the seller, transfers the NFT to the buyer, updates the NFT's ownership status in the marketplace, and increments the count of NFTs sold. It also emits an `NFTSold` event upon successful transaction."
        }
      },
      "getItemsCount()": {
        "details": "Returns the total count of NFTs listed on the marketplace."
      },
      "getItemsSold()": {
        "details": "Returns the total number of NFTs sold through the marketplace."
      },
      "getListingFee()": {
        "details": "Returns the current listing fee for the marketplace."
      },
      "getMarketPlaceBalance()": {
        "details": "Returns the current balance of Ether held by the marketplace contract."
      },
      "getTokenForId(uint256)": {
        "details": "Retrieves details for a listed NFT by its ID.",
        "params": {
          "_tokenId": "ID of the NFT to retrieve details for."
        },
        "returns": {
          "_0": "Token struct with NFT details."
        }
      },
      "listNFT(address,uint256,string,uint256,string)": {
        "details": "Lists an NFT on the marketplace by transferring it from the seller to the contract. Requires the transaction value to be equal to the listing fee to ensure commitment from the seller. Upon successful listing, increments the count of NFTs listed and emits an NFTListed event.",
        "params": {
          "_name": "The name of the NFT.",
          "_nftContract": "The address of the ERC721 NFT contract.",
          "_tokenId": "The unique identifier for the NFT.",
          "_tokenURI": "The metadata URI for the NFT. Requirements: - The transaction value must be greater than 0, ensuring a non-zero price for listing. - The transaction value must equal the predefined listing fee. - The caller must own the NFT or be an approved operator for the `_tokenId` in the NFT contract."
        }
      },
      "resellNFT(address,uint256)": {
        "details": "Allows an NFT owner to relist an NFT they've purchased on the marketplace. Requires the relisting fee to be sent with the transaction.",
        "params": {
          "_nftContract": "Address of the NFT contract.",
          "_tokenId": "ID of the NFT being relisted. The function transfers the NFT from the current owner back to the marketplace contract, marks it as listed, and updates the seller to the current caller."
        }
      }
    },
    "version": 1
  },
  "userdoc": {
    "kind": "user",
    "methods": {},
    "version": 1
  }
}