{
  "contractName": "NFT",
  "abi": [
    {
      "inputs": [
        {
          "internalType": "address",
          "name": "_marketplace",
          "type": "address"
        }
      ],
      "stateMutability": "nonpayable",
      "type": "constructor"
    },
    {
      "anonymous": false,
      "inputs": [
        {
          "indexed": true,
          "internalType": "address",
          "name": "owner",
          "type": "address"
        },
        {
          "indexed": true,
          "internalType": "address",
          "name": "approved",
          "type": "address"
        },
        {
          "indexed": true,
          "internalType": "uint256",
          "name": "tokenId",
          "type": "uint256"
        }
      ],
      "name": "Approval",
      "type": "event"
    },
    {
      "anonymous": false,
      "inputs": [
        {
          "indexed": true,
          "internalType": "address",
          "name": "owner",
          "type": "address"
        },
        {
          "indexed": true,
          "internalType": "address",
          "name": "operator",
          "type": "address"
        },
        {
          "indexed": false,
          "internalType": "bool",
          "name": "approved",
          "type": "bool"
        }
      ],
      "name": "ApprovalForAll",
      "type": "event"
    },
    {
      "anonymous": false,
      "inputs": [
        {
          "indexed": false,
          "internalType": "uint256",
          "name": "",
          "type": "uint256"
        }
      ],
      "name": "NFTMinted",
      "type": "event"
    },
    {
      "anonymous": false,
      "inputs": [
        {
          "indexed": true,
          "internalType": "address",
          "name": "from",
          "type": "address"
        },
        {
          "indexed": true,
          "internalType": "address",
          "name": "to",
          "type": "address"
        },
        {
          "indexed": true,
          "internalType": "uint256",
          "name": "tokenId",
          "type": "uint256"
        }
      ],
      "name": "Transfer",
      "type": "event"
    },
    {
      "inputs": [
        {
          "internalType": "address",
          "name": "to",
          "type": "address"
        },
        {
          "internalType": "uint256",
          "name": "tokenId",
          "type": "uint256"
        }
      ],
      "name": "approve",
      "outputs": [],
      "stateMutability": "nonpayable",
      "type": "function"
    },
    {
      "inputs": [
        {
          "internalType": "address",
          "name": "owner",
          "type": "address"
        }
      ],
      "name": "balanceOf",
      "outputs": [
        {
          "internalType": "uint256",
          "name": "",
          "type": "uint256"
        }
      ],
      "stateMutability": "view",
      "type": "function",
      "constant": true
    },
    {
      "inputs": [
        {
          "internalType": "uint256",
          "name": "tokenId",
          "type": "uint256"
        }
      ],
      "name": "getApproved",
      "outputs": [
        {
          "internalType": "address",
          "name": "",
          "type": "address"
        }
      ],
      "stateMutability": "view",
      "type": "function",
      "constant": true
    },
    {
      "inputs": [
        {
          "internalType": "address",
          "name": "owner",
          "type": "address"
        },
        {
          "internalType": "address",
          "name": "operator",
          "type": "address"
        }
      ],
      "name": "isApprovedForAll",
      "outputs": [
        {
          "internalType": "bool",
          "name": "",
          "type": "bool"
        }
      ],
      "stateMutability": "view",
      "type": "function",
      "constant": true
    },
    {
      "inputs": [],
      "name": "name",
      "outputs": [
        {
          "internalType": "string",
          "name": "",
          "type": "string"
        }
      ],
      "stateMutability": "view",
      "type": "function",
      "constant": true
    },
    {
      "inputs": [
        {
          "internalType": "uint256",
          "name": "tokenId",
          "type": "uint256"
        }
      ],
      "name": "ownerOf",
      "outputs": [
        {
          "internalType": "address",
          "name": "",
          "type": "address"
        }
      ],
      "stateMutability": "view",
      "type": "function",
      "constant": true
    },
    {
      "inputs": [
        {
          "internalType": "address",
          "name": "from",
          "type": "address"
        },
        {
          "internalType": "address",
          "name": "to",
          "type": "address"
        },
        {
          "internalType": "uint256",
          "name": "tokenId",
          "type": "uint256"
        }
      ],
      "name": "safeTransferFrom",
      "outputs": [],
      "stateMutability": "nonpayable",
      "type": "function"
    },
    {
      "inputs": [
        {
          "internalType": "address",
          "name": "from",
          "type": "address"
        },
        {
          "internalType": "address",
          "name": "to",
          "type": "address"
        },
        {
          "internalType": "uint256",
          "name": "tokenId",
          "type": "uint256"
        },
        {
          "internalType": "bytes",
          "name": "data",
          "type": "bytes"
        }
      ],
      "name": "safeTransferFrom",
      "outputs": [],
      "stateMutability": "nonpayable",
      "type": "function"
    },
    {
      "inputs": [
        {
          "internalType": "address",
          "name": "operator",
          "type": "address"
        },
        {
          "internalType": "bool",
          "name": "approved",
          "type": "bool"
        }
      ],
      "name": "setApprovalForAll",
      "outputs": [],
      "stateMutability": "nonpayable",
      "type": "function"
    },
    {
      "inputs": [
        {
          "internalType": "bytes4",
          "name": "interfaceId",
          "type": "bytes4"
        }
      ],
      "name": "supportsInterface",
      "outputs": [
        {
          "internalType": "bool",
          "name": "",
          "type": "bool"
        }
      ],
      "stateMutability": "view",
      "type": "function",
      "constant": true
    },
    {
      "inputs": [],
      "name": "symbol",
      "outputs": [
        {
          "internalType": "string",
          "name": "",
          "type": "string"
        }
      ],
      "stateMutability": "view",
      "type": "function",
      "constant": true
    },
    {
      "inputs": [
        {
          "internalType": "uint256",
          "name": "tokenId",
          "type": "uint256"
        }
      ],
      "name": "tokenURI",
      "outputs": [
        {
          "internalType": "string",
          "name": "",
          "type": "string"
        }
      ],
      "stateMutability": "view",
      "type": "function",
      "constant": true
    },
    {
      "inputs": [
        {
          "internalType": "address",
          "name": "from",
          "type": "address"
        },
        {
          "internalType": "address",
          "name": "to",
          "type": "address"
        },
        {
          "internalType": "uint256",
          "name": "tokenId",
          "type": "uint256"
        }
      ],
      "name": "transferFrom",
      "outputs": [],
      "stateMutability": "nonpayable",
      "type": "function"
    },
    {
      "inputs": [
        {
          "internalType": "string",
          "name": "_tokenURI",
          "type": "string"
        }
      ],
      "name": "mint",
      "outputs": [
        {
          "internalType": "uint256",
          "name": "",
          "type": "uint256"
        }
      ],
      "stateMutability": "nonpayable",
      "type": "function"
    },
    {
      "inputs": [],
      "name": "getCurrentToken",
      "outputs": [
        {
          "internalType": "uint256",
          "name": "",
          "type": "uint256"
        }
      ],
      "stateMutability": "view",
      "type": "function",
      "constant": true
    }
  ],
  "bytecode": "0x60806040523480156200001157600080fd5b5060405162002fb038038062002fb083398181016040528101906200003791906200017b565b6040518060400160405280600781526020017f4d79546f6b656e000000000000000000000000000000000000000000000000008152506040518060400160405280600481526020017f4d544b4e000000000000000000000000000000000000000000000000000000008152508160009081620000b4919062000427565b508060019081620000c6919062000427565b50505080600860006101000a81548173ffffffffffffffffffffffffffffffffffffffff021916908373ffffffffffffffffffffffffffffffffffffffff160217905550506200050e565b600080fd5b600073ffffffffffffffffffffffffffffffffffffffff82169050919050565b6000620001438262000116565b9050919050565b620001558162000136565b81146200016157600080fd5b50565b60008151905062000175816200014a565b92915050565b60006020828403121562000194576200019362000111565b5b6000620001a48482850162000164565b91505092915050565b600081519050919050565b7f4e487b7100000000000000000000000000000000000000000000000000000000600052604160045260246000fd5b7f4e487b7100000000000000000000000000000000000000000000000000000000600052602260045260246000fd5b600060028204905060018216806200022f57607f821691505b602082108103620002455762000244620001e7565b5b50919050565b60008190508160005260206000209050919050565b60006020601f8301049050919050565b600082821b905092915050565b600060088302620002af7fffffffffffffffffffffffffffffffffffffffffffffffffffffffffffffffff8262000270565b620002bb868362000270565b95508019841693508086168417925050509392505050565b6000819050919050565b6000819050919050565b60006200030862000302620002fc84620002d3565b620002dd565b620002d3565b9050919050565b6000819050919050565b6200032483620002e7565b6200033c62000333826200030f565b8484546200027d565b825550505050565b600090565b6200035362000344565b6200036081848462000319565b505050565b5b8181101562000388576200037c60008262000349565b60018101905062000366565b5050565b601f821115620003d757620003a1816200024b565b620003ac8462000260565b81016020851015620003bc578190505b620003d4620003cb8562000260565b83018262000365565b50505b505050565b600082821c905092915050565b6000620003fc60001984600802620003dc565b1980831691505092915050565b6000620004178383620003e9565b9150826002028217905092915050565b6200043282620001ad565b67ffffffffffffffff8111156200044e576200044d620001b8565b5b6200045a825462000216565b620004678282856200038c565b600060209050601f8311600181146200049f57600084156200048a578287015190505b62000496858262000409565b86555062000506565b601f198416620004af866200024b565b60005b82811015620004d957848901518255600182019150602085019450602081019050620004b2565b86831015620004f95784890151620004f5601f891682620003e9565b8355505b6001600288020188555050505b505050505050565b612a92806200051e6000396000f3fe608060405234801561001057600080fd5b50600436106100f55760003560e01c806370a0823111610097578063c87b56dd11610066578063c87b56dd14610282578063d85d3d27146102b2578063e985e9c5146102e2578063ef2d174614610312576100f5565b806370a08231146101fc57806395d89b411461022c578063a22cb4651461024a578063b88d4fde14610266576100f5565b8063095ea7b3116100d3578063095ea7b31461017857806323b872dd1461019457806342842e0e146101b05780636352211e146101cc576100f5565b806301ffc9a7146100fa57806306fdde031461012a578063081812fc14610148575b600080fd5b610114600480360381019061010f9190611824565b610330565b604051610121919061186c565b60405180910390f35b610132610412565b60405161013f9190611917565b60405180910390f35b610162600480360381019061015d919061196f565b6104a4565b60405161016f91906119dd565b60405180910390f35b610192600480360381019061018d9190611a24565b6104ea565b005b6101ae60048036038101906101a99190611a64565b610601565b005b6101ca60048036038101906101c59190611a64565b610661565b005b6101e660048036038101906101e1919061196f565b610681565b6040516101f391906119dd565b60405180910390f35b61021660048036038101906102119190611ab7565b610732565b6040516102239190611af3565b60405180910390f35b6102346107e9565b6040516102419190611917565b60405180910390f35b610264600480360381019061025f9190611b3a565b61087b565b005b610280600480360381019061027b9190611caf565b610891565b005b61029c6004803603810190610297919061196f565b6108f3565b6040516102a99190611917565b60405180910390f35b6102cc60048036038101906102c79190611dd3565b610a05565b6040516102d99190611af3565b60405180910390f35b6102fc60048036038101906102f79190611e1c565b610a71565b604051610309919061186c565b60405180910390f35b61031a610b05565b6040516103279190611af3565b60405180910390f35b60007f80ac58cd000000000000000000000000000000000000000000000000000000007bffffffffffffffffffffffffffffffffffffffffffffffffffffffff1916827bffffffffffffffffffffffffffffffffffffffffffffffffffffffff191614806103fb57507f5b5e139f000000000000000000000000000000000000000000000000000000007bffffffffffffffffffffffffffffffffffffffffffffffffffffffff1916827bffffffffffffffffffffffffffffffffffffffffffffffffffffffff1916145b8061040b575061040a82610b16565b5b9050919050565b60606000805461042190611e8b565b80601f016020809104026020016040519081016040528092919081815260200182805461044d90611e8b565b801561049a5780601f1061046f5761010080835404028352916020019161049a565b820191906000526020600020905b81548152906001019060200180831161047d57829003601f168201915b5050505050905090565b60006104af82610b80565b6004600083815260200190815260200160002060009054906101000a900473ffffffffffffffffffffffffffffffffffffffff169050919050565b60006104f582610681565b90508073ffffffffffffffffffffffffffffffffffffffff168373ffffffffffffffffffffffffffffffffffffffff1603610565576040517f08c379a000000000000000000000000000000000000000000000000000000000815260040161055c90611f2e565b60405180910390fd5b8073ffffffffffffffffffffffffffffffffffffffff16610584610bcb565b73ffffffffffffffffffffffffffffffffffffffff1614806105b357506105b2816105ad610bcb565b610a71565b5b6105f2576040517f08c379a00000000000000000000000000000000000000000000000000000000081526004016105e990611fc0565b60405180910390fd5b6105fc8383610bd3565b505050565b61061261060c610bcb565b82610c8c565b610651576040517f08c379a000000000000000000000000000000000000000000000000000000000815260040161064890612052565b60405180910390fd5b61065c838383610d21565b505050565b61067c83838360405180602001604052806000815250610891565b505050565b6000806002600084815260200190815260200160002060009054906101000a900473ffffffffffffffffffffffffffffffffffffffff169050600073ffffffffffffffffffffffffffffffffffffffff168173ffffffffffffffffffffffffffffffffffffffff1603610729576040517f08c379a0000000000000000000000000000000000000000000000000000000008152600401610720906120be565b60405180910390fd5b80915050919050565b60008073ffffffffffffffffffffffffffffffffffffffff168273ffffffffffffffffffffffffffffffffffffffff16036107a2576040517f08c379a000000000000000000000000000000000000000000000000000000000815260040161079990612150565b60405180910390fd5b600360008373ffffffffffffffffffffffffffffffffffffffff1673ffffffffffffffffffffffffffffffffffffffff168152602001908152602001600020549050919050565b6060600180546107f890611e8b565b80601f016020809104026020016040519081016040528092919081815260200182805461082490611e8b565b80156108715780601f1061084657610100808354040283529160200191610871565b820191906000526020600020905b81548152906001019060200180831161085457829003601f168201915b5050505050905090565b61088d610886610bcb565b8383610f87565b5050565b6108a261089c610bcb565b83610c8c565b6108e1576040517f08c379a00000000000000000000000000000000000000000000000000000000081526004016108d890612052565b60405180910390fd5b6108ed848484846110f3565b50505050565b60606108fe82610b80565b600060066000848152602001908152602001600020805461091e90611e8b565b80601f016020809104026020016040519081016040528092919081815260200182805461094a90611e8b565b80156109975780601f1061096c57610100808354040283529160200191610997565b820191906000526020600020905b81548152906001019060200180831161097a57829003601f168201915b5050505050905060006109a861114f565b905060008151036109bd578192505050610a00565b6000825111156109f25780826040516020016109da9291906121ac565b60405160208183030381529060405292505050610a00565b6109fb84611166565b925050505b919050565b600080610a1260076111ce565b9050610a1e33826111dc565b610a2881846113b5565b610a55600860009054906101000a900473ffffffffffffffffffffffffffffffffffffffff16600161087b565b610a5f6007611422565b610a6960076111ce565b915050919050565b6000600560008473ffffffffffffffffffffffffffffffffffffffff1673ffffffffffffffffffffffffffffffffffffffff16815260200190815260200160002060008373ffffffffffffffffffffffffffffffffffffffff1673ffffffffffffffffffffffffffffffffffffffff16815260200190815260200160002060009054906101000a900460ff16905092915050565b6000610b1160076111ce565b905090565b60007f01ffc9a7000000000000000000000000000000000000000000000000000000007bffffffffffffffffffffffffffffffffffffffffffffffffffffffff1916827bffffffffffffffffffffffffffffffffffffffffffffffffffffffff1916149050919050565b610b8981611438565b610bc8576040517f08c379a0000000000000000000000000000000000000000000000000000000008152600401610bbf906120be565b60405180910390fd5b50565b600033905090565b816004600083815260200190815260200160002060006101000a81548173ffffffffffffffffffffffffffffffffffffffff021916908373ffffffffffffffffffffffffffffffffffffffff160217905550808273ffffffffffffffffffffffffffffffffffffffff16610c4683610681565b73ffffffffffffffffffffffffffffffffffffffff167f8c5be1e5ebec7d5bd14f71427d1e84f3dd0314c0f7b2291e5b200ac8c7c3b92560405160405180910390a45050565b600080610c9883610681565b90508073ffffffffffffffffffffffffffffffffffffffff168473ffffffffffffffffffffffffffffffffffffffff161480610cda5750610cd98185610a71565b5b80610d1857508373ffffffffffffffffffffffffffffffffffffffff16610d00846104a4565b73ffffffffffffffffffffffffffffffffffffffff16145b91505092915050565b8273ffffffffffffffffffffffffffffffffffffffff16610d4182610681565b73ffffffffffffffffffffffffffffffffffffffff1614610d97576040517f08c379a0000000000000000000000000000000000000000000000000000000008152600401610d8e90612242565b60405180910390fd5b600073ffffffffffffffffffffffffffffffffffffffff168273ffffffffffffffffffffffffffffffffffffffff1603610e06576040517f08c379a0000000000000000000000000000000000000000000000000000000008152600401610dfd906122d4565b60405180910390fd5b610e118383836114a4565b610e1c600082610bd3565b6001600360008573ffffffffffffffffffffffffffffffffffffffff1673ffffffffffffffffffffffffffffffffffffffff1681526020019081526020016000206000828254610e6c9190612323565b925050819055506001600360008473ffffffffffffffffffffffffffffffffffffffff1673ffffffffffffffffffffffffffffffffffffffff1681526020019081526020016000206000828254610ec39190612357565b92505081905550816002600083815260200190815260200160002060006101000a81548173ffffffffffffffffffffffffffffffffffffffff021916908373ffffffffffffffffffffffffffffffffffffffff160217905550808273ffffffffffffffffffffffffffffffffffffffff168473ffffffffffffffffffffffffffffffffffffffff167fddf252ad1be2c89b69c2b068fc378daa952ba7f163c4a11628f55a4df523b3ef60405160405180910390a4610f828383836114a9565b505050565b8173ffffffffffffffffffffffffffffffffffffffff168373ffffffffffffffffffffffffffffffffffffffff1603610ff5576040517f08c379a0000000000000000000000000000000000000000000000000000000008152600401610fec906123d7565b60405180910390fd5b80600560008573ffffffffffffffffffffffffffffffffffffffff1673ffffffffffffffffffffffffffffffffffffffff16815260200190815260200160002060008473ffffffffffffffffffffffffffffffffffffffff1673ffffffffffffffffffffffffffffffffffffffff16815260200190815260200160002060006101000a81548160ff0219169083151502179055508173ffffffffffffffffffffffffffffffffffffffff168373ffffffffffffffffffffffffffffffffffffffff167f17307eab39ab6107e8899845ad3d59bd9653f200f220920489ca2b5937696c31836040516110e6919061186c565b60405180910390a3505050565b6110fe848484610d21565b61110a848484846114ae565b611149576040517f08c379a000000000000000000000000000000000000000000000000000000000815260040161114090612469565b60405180910390fd5b50505050565b606060405180602001604052806000815250905090565b606061117182610b80565b600061117b61114f565b9050600081511161119b57604051806020016040528060008152506111c6565b806111a584611635565b6040516020016111b69291906121ac565b6040516020818303038152906040525b915050919050565b600081600001549050919050565b600073ffffffffffffffffffffffffffffffffffffffff168273ffffffffffffffffffffffffffffffffffffffff160361124b576040517f08c379a0000000000000000000000000000000000000000000000000000000008152600401611242906124d5565b60405180910390fd5b61125481611438565b15611294576040517f08c379a000000000000000000000000000000000000000000000000000000000815260040161128b90612541565b60405180910390fd5b6112a0600083836114a4565b6001600360008473ffffffffffffffffffffffffffffffffffffffff1673ffffffffffffffffffffffffffffffffffffffff16815260200190815260200160002060008282546112f09190612357565b92505081905550816002600083815260200190815260200160002060006101000a81548173ffffffffffffffffffffffffffffffffffffffff021916908373ffffffffffffffffffffffffffffffffffffffff160217905550808273ffffffffffffffffffffffffffffffffffffffff16600073ffffffffffffffffffffffffffffffffffffffff167fddf252ad1be2c89b69c2b068fc378daa952ba7f163c4a11628f55a4df523b3ef60405160405180910390a46113b1600083836114a9565b5050565b6113be82611438565b6113fd576040517f08c379a00000000000000000000000000000000000000000000000000000000081526004016113f4906125d3565b60405180910390fd5b8060066000848152602001908152602001600020908161141d919061279f565b505050565b6001816000016000828254019250508190555050565b60008073ffffffffffffffffffffffffffffffffffffffff166002600084815260200190815260200160002060009054906101000a900473ffffffffffffffffffffffffffffffffffffffff1673ffffffffffffffffffffffffffffffffffffffff1614159050919050565b505050565b505050565b60006114cf8473ffffffffffffffffffffffffffffffffffffffff16611795565b15611628578373ffffffffffffffffffffffffffffffffffffffff1663150b7a026114f8610bcb565b8786866040518563ffffffff1660e01b815260040161151a94939291906128c6565b6020604051808303816000875af192505050801561155657506040513d601f19601f820116820180604052508101906115539190612927565b60015b6115d8573d8060008114611586576040519150601f19603f3d011682016040523d82523d6000602084013e61158b565b606091505b5060008151036115d0576040517f08c379a00000000000000000000000000000000000000000000000000000000081526004016115c790612469565b60405180910390fd5b805181602001fd5b63150b7a0260e01b7bffffffffffffffffffffffffffffffffffffffffffffffffffffffff1916817bffffffffffffffffffffffffffffffffffffffffffffffffffffffff19161491505061162d565b600190505b949350505050565b60606000820361167c576040518060400160405280600181526020017f30000000000000000000000000000000000000000000000000000000000000008152509050611790565b600082905060005b600082146116ae57808061169790612954565b915050600a826116a791906129cb565b9150611684565b60008167ffffffffffffffff8111156116ca576116c9611b84565b5b6040519080825280601f01601f1916602001820160405280156116fc5781602001600182028036833780820191505090505b5090505b60008514611789576001826117159190612323565b9150600a8561172491906129fc565b60306117309190612357565b60f81b81838151811061174657611745612a2d565b5b60200101907effffffffffffffffffffffffffffffffffffffffffffffffffffffffffffff1916908160001a905350600a8561178291906129cb565b9450611700565b8093505050505b919050565b6000808273ffffffffffffffffffffffffffffffffffffffff163b119050919050565b6000604051905090565b600080fd5b600080fd5b60007fffffffff0000000000000000000000000000000000000000000000000000000082169050919050565b611801816117cc565b811461180c57600080fd5b50565b60008135905061181e816117f8565b92915050565b60006020828403121561183a576118396117c2565b5b60006118488482850161180f565b91505092915050565b60008115159050919050565b61186681611851565b82525050565b6000602082019050611881600083018461185d565b92915050565b600081519050919050565b600082825260208201905092915050565b60005b838110156118c15780820151818401526020810190506118a6565b60008484015250505050565b6000601f19601f8301169050919050565b60006118e982611887565b6118f38185611892565b93506119038185602086016118a3565b61190c816118cd565b840191505092915050565b6000602082019050818103600083015261193181846118de565b905092915050565b6000819050919050565b61194c81611939565b811461195757600080fd5b50565b60008135905061196981611943565b92915050565b600060208284031215611985576119846117c2565b5b60006119938482850161195a565b91505092915050565b600073ffffffffffffffffffffffffffffffffffffffff82169050919050565b60006119c78261199c565b9050919050565b6119d7816119bc565b82525050565b60006020820190506119f260008301846119ce565b92915050565b611a01816119bc565b8114611a0c57600080fd5b50565b600081359050611a1e816119f8565b92915050565b60008060408385031215611a3b57611a3a6117c2565b5b6000611a4985828601611a0f565b9250506020611a5a8582860161195a565b9150509250929050565b600080600060608486031215611a7d57611a7c6117c2565b5b6000611a8b86828701611a0f565b9350506020611a9c86828701611a0f565b9250506040611aad8682870161195a565b9150509250925092565b600060208284031215611acd57611acc6117c2565b5b6000611adb84828501611a0f565b91505092915050565b611aed81611939565b82525050565b6000602082019050611b086000830184611ae4565b92915050565b611b1781611851565b8114611b2257600080fd5b50565b600081359050611b3481611b0e565b92915050565b60008060408385031215611b5157611b506117c2565b5b6000611b5f85828601611a0f565b9250506020611b7085828601611b25565b9150509250929050565b600080fd5b600080fd5b7f4e487b7100000000000000000000000000000000000000000000000000000000600052604160045260246000fd5b611bbc826118cd565b810181811067ffffffffffffffff82111715611bdb57611bda611b84565b5b80604052505050565b6000611bee6117b8565b9050611bfa8282611bb3565b919050565b600067ffffffffffffffff821115611c1a57611c19611b84565b5b611c23826118cd565b9050602081019050919050565b82818337600083830152505050565b6000611c52611c4d84611bff565b611be4565b905082815260208101848484011115611c6e57611c6d611b7f565b5b611c79848285611c30565b509392505050565b600082601f830112611c9657611c95611b7a565b5b8135611ca6848260208601611c3f565b91505092915050565b60008060008060808587031215611cc957611cc86117c2565b5b6000611cd787828801611a0f565b9450506020611ce887828801611a0f565b9350506040611cf98782880161195a565b925050606085013567ffffffffffffffff811115611d1a57611d196117c7565b5b611d2687828801611c81565b91505092959194509250565b600067ffffffffffffffff821115611d4d57611d4c611b84565b5b611d56826118cd565b9050602081019050919050565b6000611d76611d7184611d32565b611be4565b905082815260208101848484011115611d9257611d91611b7f565b5b611d9d848285611c30565b509392505050565b600082601f830112611dba57611db9611b7a565b5b8135611dca848260208601611d63565b91505092915050565b600060208284031215611de957611de86117c2565b5b600082013567ffffffffffffffff811115611e0757611e066117c7565b5b611e1384828501611da5565b91505092915050565b60008060408385031215611e3357611e326117c2565b5b6000611e4185828601611a0f565b9250506020611e5285828601611a0f565b9150509250929050565b7f4e487b7100000000000000000000000000000000000000000000000000000000600052602260045260246000fd5b60006002820490506001821680611ea357607f821691505b602082108103611eb657611eb5611e5c565b5b50919050565b7f4552433732313a20617070726f76616c20746f2063757272656e74206f776e6560008201527f7200000000000000000000000000000000000000000000000000000000000000602082015250565b6000611f18602183611892565b9150611f2382611ebc565b604082019050919050565b60006020820190508181036000830152611f4781611f0b565b9050919050565b7f4552433732313a20617070726f76652063616c6c6572206973206e6f7420746f60008201527f6b656e206f776e6572206e6f7220617070726f76656420666f7220616c6c0000602082015250565b6000611faa603e83611892565b9150611fb582611f4e565b604082019050919050565b60006020820190508181036000830152611fd981611f9d565b9050919050565b7f4552433732313a2063616c6c6572206973206e6f7420746f6b656e206f776e6560008201527f72206e6f7220617070726f766564000000000000000000000000000000000000602082015250565b600061203c602e83611892565b915061204782611fe0565b604082019050919050565b6000602082019050818103600083015261206b8161202f565b9050919050565b7f4552433732313a20696e76616c696420746f6b656e2049440000000000000000600082015250565b60006120a8601883611892565b91506120b382612072565b602082019050919050565b600060208201905081810360008301526120d78161209b565b9050919050565b7f4552433732313a2061646472657373207a65726f206973206e6f74206120766160008201527f6c6964206f776e65720000000000000000000000000000000000000000000000602082015250565b600061213a602983611892565b9150612145826120de565b604082019050919050565b600060208201905081810360008301526121698161212d565b9050919050565b600081905092915050565b600061218682611887565b6121908185612170565b93506121a08185602086016118a3565b80840191505092915050565b60006121b8828561217b565b91506121c4828461217b565b91508190509392505050565b7f4552433732313a207472616e736665722066726f6d20696e636f72726563742060008201527f6f776e6572000000000000000000000000000000000000000000000000000000602082015250565b600061222c602583611892565b9150612237826121d0565b604082019050919050565b6000602082019050818103600083015261225b8161221f565b9050919050565b7f4552433732313a207472616e7366657220746f20746865207a65726f2061646460008201527f7265737300000000000000000000000000000000000000000000000000000000602082015250565b60006122be602483611892565b91506122c982612262565b604082019050919050565b600060208201905081810360008301526122ed816122b1565b9050919050565b7f4e487b7100000000000000000000000000000000000000000000000000000000600052601160045260246000fd5b600061232e82611939565b915061233983611939565b9250828203905081811115612351576123506122f4565b5b92915050565b600061236282611939565b915061236d83611939565b9250828201905080821115612385576123846122f4565b5b92915050565b7f4552433732313a20617070726f766520746f2063616c6c657200000000000000600082015250565b60006123c1601983611892565b91506123cc8261238b565b602082019050919050565b600060208201905081810360008301526123f0816123b4565b9050919050565b7f4552433732313a207472616e7366657220746f206e6f6e20455243373231526560008201527f63656976657220696d706c656d656e7465720000000000000000000000000000602082015250565b6000612453603283611892565b915061245e826123f7565b604082019050919050565b6000602082019050818103600083015261248281612446565b9050919050565b7f4552433732313a206d696e7420746f20746865207a65726f2061646472657373600082015250565b60006124bf602083611892565b91506124ca82612489565b602082019050919050565b600060208201905081810360008301526124ee816124b2565b9050919050565b7f4552433732313a20746f6b656e20616c7265616479206d696e74656400000000600082015250565b600061252b601c83611892565b9150612536826124f5565b602082019050919050565b6000602082019050818103600083015261255a8161251e565b9050919050565b7f45524337323155524953746f726167653a2055524920736574206f66206e6f6e60008201527f6578697374656e7420746f6b656e000000000000000000000000000000000000602082015250565b60006125bd602e83611892565b91506125c882612561565b604082019050919050565b600060208201905081810360008301526125ec816125b0565b9050919050565b60008190508160005260206000209050919050565b60006020601f8301049050919050565b600082821b905092915050565b6000600883026126557fffffffffffffffffffffffffffffffffffffffffffffffffffffffffffffffff82612618565b61265f8683612618565b95508019841693508086168417925050509392505050565b6000819050919050565b600061269c61269761269284611939565b612677565b611939565b9050919050565b6000819050919050565b6126b683612681565b6126ca6126c2826126a3565b848454612625565b825550505050565b600090565b6126df6126d2565b6126ea8184846126ad565b505050565b5b8181101561270e576127036000826126d7565b6001810190506126f0565b5050565b601f82111561275357612724816125f3565b61272d84612608565b8101602085101561273c578190505b61275061274885612608565b8301826126ef565b50505b505050565b600082821c905092915050565b600061277660001984600802612758565b1980831691505092915050565b600061278f8383612765565b9150826002028217905092915050565b6127a882611887565b67ffffffffffffffff8111156127c1576127c0611b84565b5b6127cb8254611e8b565b6127d6828285612712565b600060209050601f83116001811461280957600084156127f7578287015190505b6128018582612783565b865550612869565b601f198416612817866125f3565b60005b8281101561283f5784890151825560018201915060208501945060208101905061281a565b8683101561285c5784890151612858601f891682612765565b8355505b6001600288020188555050505b505050505050565b600081519050919050565b600082825260208201905092915050565b600061289882612871565b6128a2818561287c565b93506128b28185602086016118a3565b6128bb816118cd565b840191505092915050565b60006080820190506128db60008301876119ce565b6128e860208301866119ce565b6128f56040830185611ae4565b8181036060830152612907818461288d565b905095945050505050565b600081519050612921816117f8565b92915050565b60006020828403121561293d5761293c6117c2565b5b600061294b84828501612912565b91505092915050565b600061295f82611939565b91507fffffffffffffffffffffffffffffffffffffffffffffffffffffffffffffffff8203612991576129906122f4565b5b600182019050919050565b7f4e487b7100000000000000000000000000000000000000000000000000000000600052601260045260246000fd5b60006129d682611939565b91506129e183611939565b9250826129f1576129f061299c565b5b828204905092915050565b6000612a0782611939565b9150612a1283611939565b925082612a2257612a2161299c565b5b828206905092915050565b7f4e487b7100000000000000000000000000000000000000000000000000000000600052603260045260246000fdfea264697066735822122026a2974615d546bce2db8cc44cf56624ef472c88db61329e7ce8b27071d5fd1e64736f6c63430008130033",
  "immutableReferences": {},
  "source": "// SPDX-License-Identifier: MIT\npragma solidity ^0.8.19;\n\nimport \"./@openzeppelin/contracts/token/ERC721/ERC721.sol\";\nimport \"./@openzeppelin/contracts/token/ERC721/extensions/ERC721URIStorage.sol\";\nimport \"./@openzeppelin/contracts/utils/Counters.sol\";\n\n\ncontract NFT is ERC721URIStorage {\n    using Counters for Counters.Counter;\n    Counters.Counter private _tokenIds;\n    address marketplaceContract;\n    event NFTMinted(uint256);\n\n    /**\n     * @dev Constructor to create a new NFT contract instance. It initializes the ERC721 token\n     * with a name and a symbol and sets the marketplace address where these NFTs can be sold.\n     *\n     * @param _marketplace The address of the marketplace contract that will be allowed to manage\n     * the NFTs minted from this contract. This enables the marketplace to list and sell the NFTs.\n     */\n    constructor(address _marketplace) ERC721(\"MyToken\", \"MTKN\") {\n        marketplaceContract = _marketplace;\n    }\n\n    /**\n     * @dev Mints a new NFT with the provided metadata URI. This function assigns a new unique\n     * token ID to the minted NFT, sets its metadata URI, approves the marketplace contract to\n     * manage the NFT on behalf of the token owner, and increments the token ID counter for the\n     * next token to be minted. Finally, it returns the ID of the newly minted token.\n     *\n     * @param _tokenURI The metadata URI for the newly minted NFT.\n     * @return uint256 The ID of the newly minted token.\n     */\n    function mint(string memory _tokenURI) public returns (uint256) {\n        uint256 newItemId = _tokenIds.current();\n        _mint(msg.sender, newItemId);\n\n        _setTokenURI(newItemId, _tokenURI);\n        setApprovalForAll(marketplaceContract, true);\n        _tokenIds.increment();\n        return _tokenIds.current();\n    }\n\n    /**\n     * @dev Retrieves the current token ID counter's value. This function is useful for\n     * understanding how many tokens have been minted by this contract so far, as it returns\n     * the ID that will be assigned to the next minted token.\n     *\n     * @return uint256 The current value of the token ID counter, representing the total number\n     * of tokens minted by this contract.\n     */\n    function getCurrentToken() public view returns (uint256) {\n        return _tokenIds.current();\n    }\n}\n",
  "sourcePath": "/Users/marciovieira/Desktop/__/CA_Blockchain/DCU_MKT_PLC/contracts/NFT.sol",
  "compiler": {
    "name": "solc",
    "version": "0.8.19+commit.7dd6d404.Emscripten.clang"
  },
  "schemaVersion": "3.4.16",
  "updatedAt": "2024-03-10T11:33:40.186Z",
  "networkType": "ethereum",
  "devdoc": {
    "events": {
      "Approval(address,address,uint256)": {
        "details": "Emitted when `owner` enables `approved` to manage the `tokenId` token."
      },
      "ApprovalForAll(address,address,bool)": {
        "details": "Emitted when `owner` enables or disables (`approved`) `operator` to manage all of its assets."
      },
      "Transfer(address,address,uint256)": {
        "details": "Emitted when `tokenId` token is transferred from `from` to `to`."
      }
    },
    "kind": "dev",
    "methods": {
      "approve(address,uint256)": {
        "details": "See {IERC721-approve}."
      },
      "balanceOf(address)": {
        "details": "See {IERC721-balanceOf}."
      },
      "constructor": {
        "details": "Constructor to create a new NFT contract instance. It initializes the ERC721 token with a name and a symbol and sets the marketplace address where these NFTs can be sold.",
        "params": {
          "_marketplace": "The address of the marketplace contract that will be allowed to manage the NFTs minted from this contract. This enables the marketplace to list and sell the NFTs."
        }
      },
      "getApproved(uint256)": {
        "details": "See {IERC721-getApproved}."
      },
      "getCurrentToken()": {
        "details": "Retrieves the current token ID counter's value. This function is useful for understanding how many tokens have been minted by this contract so far, as it returns the ID that will be assigned to the next minted token.",
        "returns": {
          "_0": "uint256 The current value of the token ID counter, representing the total number of tokens minted by this contract."
        }
      },
      "isApprovedForAll(address,address)": {
        "details": "See {IERC721-isApprovedForAll}."
      },
      "mint(string)": {
        "details": "Mints a new NFT with the provided metadata URI. This function assigns a new unique token ID to the minted NFT, sets its metadata URI, approves the marketplace contract to manage the NFT on behalf of the token owner, and increments the token ID counter for the next token to be minted. Finally, it returns the ID of the newly minted token.",
        "params": {
          "_tokenURI": "The metadata URI for the newly minted NFT."
        },
        "returns": {
          "_0": "uint256 The ID of the newly minted token."
        }
      },
      "name()": {
        "details": "See {IERC721Metadata-name}."
      },
      "ownerOf(uint256)": {
        "details": "See {IERC721-ownerOf}."
      },
      "safeTransferFrom(address,address,uint256)": {
        "details": "See {IERC721-safeTransferFrom}."
      },
      "safeTransferFrom(address,address,uint256,bytes)": {
        "details": "See {IERC721-safeTransferFrom}."
      },
      "setApprovalForAll(address,bool)": {
        "details": "See {IERC721-setApprovalForAll}."
      },
      "supportsInterface(bytes4)": {
        "details": "See {IERC165-supportsInterface}."
      },
      "symbol()": {
        "details": "See {IERC721Metadata-symbol}."
      },
      "tokenURI(uint256)": {
        "details": "See {IERC721Metadata-tokenURI}."
      },
      "transferFrom(address,address,uint256)": {
        "details": "See {IERC721-transferFrom}."
      }
    },
    "version": 1
  },
  "userdoc": {
    "kind": "user",
    "methods": {},
    "version": 1
  }
}